{
  "contracts/Auction.sol": {
    "Auction": {
      "abi": [
        {
          "inputs": [],
          "stateMutability": "nonpayable",
          "type": "constructor"
        },
        {
          "inputs": [],
          "name": "AuctionEnded",
          "type": "error"
        },
        {
          "inputs": [],
          "name": "AuctionNotActive",
          "type": "error"
        },
        {
          "inputs": [],
          "name": "BidTooLow",
          "type": "error"
        },
        {
          "inputs": [],
          "name": "IncorrectPayment",
          "type": "error"
        },
        {
          "inputs": [],
          "name": "InvalidValues",
          "type": "error"
        },
        {
          "inputs": [],
          "name": "ItemAlreadyExists",
          "type": "error"
        },
        {
          "inputs": [],
          "name": "ItemDoesNotExist",
          "type": "error"
        },
        {
          "inputs": [
            {
              "internalType": "address",
              "name": "caller",
              "type": "address"
            }
          ],
          "name": "NotOwner",
          "type": "error"
        },
        {
          "inputs": [
            {
              "internalType": "uint256",
              "name": "itemNumber",
              "type": "uint256"
            },
            {
              "internalType": "uint256",
              "name": "bidAmount",
              "type": "uint256"
            }
          ],
          "name": "bid",
          "outputs": [],
          "stateMutability": "payable",
          "type": "function"
        },
        {
          "inputs": [
            {
              "internalType": "uint256",
              "name": "itemNumber",
              "type": "uint256"
            }
          ],
          "name": "cancelAuction",
          "outputs": [],
          "stateMutability": "nonpayable",
          "type": "function"
        },
        {
          "inputs": [
            {
              "internalType": "uint256",
              "name": "itemNumber",
              "type": "uint256"
            }
          ],
          "name": "checkActiveBidPrice",
          "outputs": [
            {
              "internalType": "uint256",
              "name": "",
              "type": "uint256"
            }
          ],
          "stateMutability": "view",
          "type": "function"
        },
        {
          "inputs": [
            {
              "internalType": "uint256",
              "name": "itemNumber",
              "type": "uint256"
            }
          ],
          "name": "checkAuctionActive",
          "outputs": [
            {
              "internalType": "bool",
              "name": "",
              "type": "bool"
            }
          ],
          "stateMutability": "view",
          "type": "function"
        },
        {
          "inputs": [
            {
              "internalType": "uint256",
              "name": "itemNumber",
              "type": "uint256"
            }
          ],
          "name": "checkHighestBidder",
          "outputs": [
            {
              "internalType": "address",
              "name": "",
              "type": "address"
            }
          ],
          "stateMutability": "view",
          "type": "function"
        },
        {
          "inputs": [
            {
              "internalType": "uint256",
              "name": "itemNumber",
              "type": "uint256"
            },
            {
              "internalType": "uint256",
              "name": "startingPrice",
              "type": "uint256"
            },
            {
              "internalType": "uint256",
              "name": "duration",
              "type": "uint256"
            }
          ],
          "name": "createAuction",
          "outputs": [],
          "stateMutability": "nonpayable",
          "type": "function"
        },
        {
          "inputs": [],
          "name": "owner",
          "outputs": [
            {
              "internalType": "address",
              "name": "",
              "type": "address"
            }
          ],
          "stateMutability": "view",
          "type": "function"
        },
        {
          "inputs": [
            {
              "internalType": "uint256",
              "name": "itemNumber",
              "type": "uint256"
            }
          ],
          "name": "timeLeft",
          "outputs": [
            {
              "internalType": "uint256",
              "name": "",
              "type": "uint256"
            }
          ],
          "stateMutability": "view",
          "type": "function"
        }
      ],
      "evm": {
        "bytecode": {
          "linkReferences": {},
          "object": "60a0604052348015600f57600080fd5b503373ffffffffffffffffffffffffffffffffffffffff1660808173ffffffffffffffffffffffffffffffffffffffff1681525050608051610c6d61006d6000396000818161058f015281816105b3015261083b0152610c6d6000f3fe60806040526004361061007b5760003560e01c80638da5cb5b1161004e5780638da5cb5b1461015357806396b5a7551461017e578063ca7948db146101a7578063cda4beef146101e45761007b565b8063083ceba11461008057806347cb7a68146100bd578063598647f8146100fa57806371babc6614610116575b600080fd5b34801561008c57600080fd5b506100a760048036038101906100a29190610a24565b61020d565b6040516100b49190610a6c565b60405180910390f35b3480156100c957600080fd5b506100e460048036038101906100df9190610a24565b610260565b6040516100f19190610a96565b60405180910390f35b610114600480360381019061010f9190610ab1565b610329565b005b34801561012257600080fd5b5061013d60048036038101906101389190610a24565b6104f6565b60405161014a9190610b32565b60405180910390f35b34801561015f57600080fd5b5061016861058d565b6040516101759190610b32565b60405180910390f35b34801561018a57600080fd5b506101a560048036038101906101a09190610a24565b6105b1565b005b3480156101b357600080fd5b506101ce60048036038101906101c99190610a24565b610746565b6040516101db9190610a96565b60405180910390f35b3480156101f057600080fd5b5061020b60048036038101906102069190610b4d565b610839565b005b6000426000808481526020019081526020016000206001015411801561025957506001151560008084815260200190815260200160002060030160149054906101000a900460ff161515145b9050919050565b600081600080600083815260200190815260200160002060010154036102b2576040517f9a749d8100000000000000000000000000000000000000000000000000000000815260040160405180910390fd5b426000808581526020019081526020016000206001015411610300576040517fa0e9298400000000000000000000000000000000000000000000000000000000815260040160405180910390fd5b42600080858152602001908152602001600020600101546103219190610bcf565b915050919050565b8160008060008381526020019081526020016000206001015403610379576040517f9a749d8100000000000000000000000000000000000000000000000000000000815260040160405180910390fd5b8242600080838152602001908152602001600020600101541115806103c457506000151560008083815260200190815260200160002060030160149054906101000a900460ff161515145b156103fb576040517f69b8d0fe00000000000000000000000000000000000000000000000000000000815260040160405180910390fd5b600080858152602001908152602001600020600201548311610449576040517fa0d26eb600000000000000000000000000000000000000000000000000000000815260040160405180910390fd5b823414610482576040517f569e8c1100000000000000000000000000000000000000000000000000000000815260040160405180910390fd5b82600080868152602001908152602001600020600201819055503360008086815260200190815260200160002060030160006101000a81548173ffffffffffffffffffffffffffffffffffffffff021916908373ffffffffffffffffffffffffffffffffffffffff16021790555050505050565b60008060008084815260200190815260200160002060010154148061054157506000151560008084815260200190815260200160002060030160149054906101000a900460ff161515145b1561054f5760009050610588565b60008083815260200190815260200160002060030160009054906101000a900473ffffffffffffffffffffffffffffffffffffffff1690505b919050565b7f000000000000000000000000000000000000000000000000000000000000000081565b7f000000000000000000000000000000000000000000000000000000000000000073ffffffffffffffffffffffffffffffffffffffff163373ffffffffffffffffffffffffffffffffffffffff161461064157336040517f245aecd30000000000000000000000000000000000000000000000000000000081526004016106389190610b32565b60405180910390fd5b8060008060008381526020019081526020016000206001015403610691576040517f9a749d8100000000000000000000000000000000000000000000000000000000815260040160405180910390fd5b8142600080838152602001908152602001600020600101541115806106dc57506000151560008083815260200190815260200160002060030160149054906101000a900460ff161515145b15610713576040517f69b8d0fe00000000000000000000000000000000000000000000000000000000815260040160405180910390fd5b600080600085815260200190815260200160002060030160146101000a81548160ff021916908315150217905550505050565b60008160008060008381526020019081526020016000206001015403610798576040517f9a749d8100000000000000000000000000000000000000000000000000000000815260040160405180910390fd5b8242600080838152602001908152602001600020600101541115806107e357506000151560008083815260200190815260200160002060030160149054906101000a900460ff161515145b1561081a576040517f69b8d0fe00000000000000000000000000000000000000000000000000000000815260040160405180910390fd5b6000808581526020019081526020016000206002015492505050919050565b7f000000000000000000000000000000000000000000000000000000000000000073ffffffffffffffffffffffffffffffffffffffff163373ffffffffffffffffffffffffffffffffffffffff16146108c957336040517f245aecd30000000000000000000000000000000000000000000000000000000081526004016108c09190610b32565b60405180910390fd5b60008060008581526020019081526020016000206001015414610917576040517ea1e25e00000000000000000000000000000000000000000000000000000000815260040160405180910390fd5b60008214806109265750600081145b1561095d576040517fa2dc6c3a00000000000000000000000000000000000000000000000000000000815260040160405180910390fd5b816000808581526020019081526020016000206000018190555080426109839190610c03565b600080858152602001908152602001600020600101819055508160008085815260200190815260200160002060020181905550600160008085815260200190815260200160002060030160146101000a81548160ff021916908315150217905550505050565b600080fd5b6000819050919050565b610a01816109ee565b8114610a0c57600080fd5b50565b600081359050610a1e816109f8565b92915050565b600060208284031215610a3a57610a396109e9565b5b6000610a4884828501610a0f565b91505092915050565b60008115159050919050565b610a6681610a51565b82525050565b6000602082019050610a816000830184610a5d565b92915050565b610a90816109ee565b82525050565b6000602082019050610aab6000830184610a87565b92915050565b60008060408385031215610ac857610ac76109e9565b5b6000610ad685828601610a0f565b9250506020610ae785828601610a0f565b9150509250929050565b600073ffffffffffffffffffffffffffffffffffffffff82169050919050565b6000610b1c82610af1565b9050919050565b610b2c81610b11565b82525050565b6000602082019050610b476000830184610b23565b92915050565b600080600060608486031215610b6657610b656109e9565b5b6000610b7486828701610a0f565b9350506020610b8586828701610a0f565b9250506040610b9686828701610a0f565b9150509250925092565b7f4e487b7100000000000000000000000000000000000000000000000000000000600052601160045260246000fd5b6000610bda826109ee565b9150610be5836109ee565b9250828203905081811115610bfd57610bfc610ba0565b5b92915050565b6000610c0e826109ee565b9150610c19836109ee565b9250828201905080821115610c3157610c30610ba0565b5b9291505056fea2646970667358221220209909f9c47e0ca8b5c0b87f29b15e3e1b13163b0e6d84ae3dcc7cfd43713a3664736f6c634300081c0033",
          "opcodes": "PUSH1 0xA0 PUSH1 0x40 MSTORE CALLVALUE DUP1 ISZERO PUSH1 0xF JUMPI PUSH1 0x0 DUP1 REVERT JUMPDEST POP CALLER PUSH20 0xFFFFFFFFFFFFFFFFFFFFFFFFFFFFFFFFFFFFFFFF AND PUSH1 0x80 DUP2 PUSH20 0xFFFFFFFFFFFFFFFFFFFFFFFFFFFFFFFFFFFFFFFF AND DUP2 MSTORE POP POP PUSH1 0x80 MLOAD PUSH2 0xC6D PUSH2 0x6D PUSH1 0x0 CODECOPY PUSH1 0x0 DUP2 DUP2 PUSH2 0x58F ADD MSTORE DUP2 DUP2 PUSH2 0x5B3 ADD MSTORE PUSH2 0x83B ADD MSTORE PUSH2 0xC6D PUSH1 0x0 RETURN INVALID PUSH1 0x80 PUSH1 0x40 MSTORE PUSH1 0x4 CALLDATASIZE LT PUSH2 0x7B JUMPI PUSH1 0x0 CALLDATALOAD PUSH1 0xE0 SHR DUP1 PUSH4 0x8DA5CB5B GT PUSH2 0x4E JUMPI DUP1 PUSH4 0x8DA5CB5B EQ PUSH2 0x153 JUMPI DUP1 PUSH4 0x96B5A755 EQ PUSH2 0x17E JUMPI DUP1 PUSH4 0xCA7948DB EQ PUSH2 0x1A7 JUMPI DUP1 PUSH4 0xCDA4BEEF EQ PUSH2 0x1E4 JUMPI PUSH2 0x7B JUMP JUMPDEST DUP1 PUSH4 0x83CEBA1 EQ PUSH2 0x80 JUMPI DUP1 PUSH4 0x47CB7A68 EQ PUSH2 0xBD JUMPI DUP1 PUSH4 0x598647F8 EQ PUSH2 0xFA JUMPI DUP1 PUSH4 0x71BABC66 EQ PUSH2 0x116 JUMPI JUMPDEST PUSH1 0x0 DUP1 REVERT JUMPDEST CALLVALUE DUP1 ISZERO PUSH2 0x8C JUMPI PUSH1 0x0 DUP1 REVERT JUMPDEST POP PUSH2 0xA7 PUSH1 0x4 DUP1 CALLDATASIZE SUB DUP2 ADD SWAP1 PUSH2 0xA2 SWAP2 SWAP1 PUSH2 0xA24 JUMP JUMPDEST PUSH2 0x20D JUMP JUMPDEST PUSH1 0x40 MLOAD PUSH2 0xB4 SWAP2 SWAP1 PUSH2 0xA6C JUMP JUMPDEST PUSH1 0x40 MLOAD DUP1 SWAP2 SUB SWAP1 RETURN JUMPDEST CALLVALUE DUP1 ISZERO PUSH2 0xC9 JUMPI PUSH1 0x0 DUP1 REVERT JUMPDEST POP PUSH2 0xE4 PUSH1 0x4 DUP1 CALLDATASIZE SUB DUP2 ADD SWAP1 PUSH2 0xDF SWAP2 SWAP1 PUSH2 0xA24 JUMP JUMPDEST PUSH2 0x260 JUMP JUMPDEST PUSH1 0x40 MLOAD PUSH2 0xF1 SWAP2 SWAP1 PUSH2 0xA96 JUMP JUMPDEST PUSH1 0x40 MLOAD DUP1 SWAP2 SUB SWAP1 RETURN JUMPDEST PUSH2 0x114 PUSH1 0x4 DUP1 CALLDATASIZE SUB DUP2 ADD SWAP1 PUSH2 0x10F SWAP2 SWAP1 PUSH2 0xAB1 JUMP JUMPDEST PUSH2 0x329 JUMP JUMPDEST STOP JUMPDEST CALLVALUE DUP1 ISZERO PUSH2 0x122 JUMPI PUSH1 0x0 DUP1 REVERT JUMPDEST POP PUSH2 0x13D PUSH1 0x4 DUP1 CALLDATASIZE SUB DUP2 ADD SWAP1 PUSH2 0x138 SWAP2 SWAP1 PUSH2 0xA24 JUMP JUMPDEST PUSH2 0x4F6 JUMP JUMPDEST PUSH1 0x40 MLOAD PUSH2 0x14A SWAP2 SWAP1 PUSH2 0xB32 JUMP JUMPDEST PUSH1 0x40 MLOAD DUP1 SWAP2 SUB SWAP1 RETURN JUMPDEST CALLVALUE DUP1 ISZERO PUSH2 0x15F JUMPI PUSH1 0x0 DUP1 REVERT JUMPDEST POP PUSH2 0x168 PUSH2 0x58D JUMP JUMPDEST PUSH1 0x40 MLOAD PUSH2 0x175 SWAP2 SWAP1 PUSH2 0xB32 JUMP JUMPDEST PUSH1 0x40 MLOAD DUP1 SWAP2 SUB SWAP1 RETURN JUMPDEST CALLVALUE DUP1 ISZERO PUSH2 0x18A JUMPI PUSH1 0x0 DUP1 REVERT JUMPDEST POP PUSH2 0x1A5 PUSH1 0x4 DUP1 CALLDATASIZE SUB DUP2 ADD SWAP1 PUSH2 0x1A0 SWAP2 SWAP1 PUSH2 0xA24 JUMP JUMPDEST PUSH2 0x5B1 JUMP JUMPDEST STOP JUMPDEST CALLVALUE DUP1 ISZERO PUSH2 0x1B3 JUMPI PUSH1 0x0 DUP1 REVERT JUMPDEST POP PUSH2 0x1CE PUSH1 0x4 DUP1 CALLDATASIZE SUB DUP2 ADD SWAP1 PUSH2 0x1C9 SWAP2 SWAP1 PUSH2 0xA24 JUMP JUMPDEST PUSH2 0x746 JUMP JUMPDEST PUSH1 0x40 MLOAD PUSH2 0x1DB SWAP2 SWAP1 PUSH2 0xA96 JUMP JUMPDEST PUSH1 0x40 MLOAD DUP1 SWAP2 SUB SWAP1 RETURN JUMPDEST CALLVALUE DUP1 ISZERO PUSH2 0x1F0 JUMPI PUSH1 0x0 DUP1 REVERT JUMPDEST POP PUSH2 0x20B PUSH1 0x4 DUP1 CALLDATASIZE SUB DUP2 ADD SWAP1 PUSH2 0x206 SWAP2 SWAP1 PUSH2 0xB4D JUMP JUMPDEST PUSH2 0x839 JUMP JUMPDEST STOP JUMPDEST PUSH1 0x0 TIMESTAMP PUSH1 0x0 DUP1 DUP5 DUP2 MSTORE PUSH1 0x20 ADD SWAP1 DUP2 MSTORE PUSH1 0x20 ADD PUSH1 0x0 KECCAK256 PUSH1 0x1 ADD SLOAD GT DUP1 ISZERO PUSH2 0x259 JUMPI POP PUSH1 0x1 ISZERO ISZERO PUSH1 0x0 DUP1 DUP5 DUP2 MSTORE PUSH1 0x20 ADD SWAP1 DUP2 MSTORE PUSH1 0x20 ADD PUSH1 0x0 KECCAK256 PUSH1 0x3 ADD PUSH1 0x14 SWAP1 SLOAD SWAP1 PUSH2 0x100 EXP SWAP1 DIV PUSH1 0xFF AND ISZERO ISZERO EQ JUMPDEST SWAP1 POP SWAP2 SWAP1 POP JUMP JUMPDEST PUSH1 0x0 DUP2 PUSH1 0x0 DUP1 PUSH1 0x0 DUP4 DUP2 MSTORE PUSH1 0x20 ADD SWAP1 DUP2 MSTORE PUSH1 0x20 ADD PUSH1 0x0 KECCAK256 PUSH1 0x1 ADD SLOAD SUB PUSH2 0x2B2 JUMPI PUSH1 0x40 MLOAD PUSH32 0x9A749D8100000000000000000000000000000000000000000000000000000000 DUP2 MSTORE PUSH1 0x4 ADD PUSH1 0x40 MLOAD DUP1 SWAP2 SUB SWAP1 REVERT JUMPDEST TIMESTAMP PUSH1 0x0 DUP1 DUP6 DUP2 MSTORE PUSH1 0x20 ADD SWAP1 DUP2 MSTORE PUSH1 0x20 ADD PUSH1 0x0 KECCAK256 PUSH1 0x1 ADD SLOAD GT PUSH2 0x300 JUMPI PUSH1 0x40 MLOAD PUSH32 0xA0E9298400000000000000000000000000000000000000000000000000000000 DUP2 MSTORE PUSH1 0x4 ADD PUSH1 0x40 MLOAD DUP1 SWAP2 SUB SWAP1 REVERT JUMPDEST TIMESTAMP PUSH1 0x0 DUP1 DUP6 DUP2 MSTORE PUSH1 0x20 ADD SWAP1 DUP2 MSTORE PUSH1 0x20 ADD PUSH1 0x0 KECCAK256 PUSH1 0x1 ADD SLOAD PUSH2 0x321 SWAP2 SWAP1 PUSH2 0xBCF JUMP JUMPDEST SWAP2 POP POP SWAP2 SWAP1 POP JUMP JUMPDEST DUP2 PUSH1 0x0 DUP1 PUSH1 0x0 DUP4 DUP2 MSTORE PUSH1 0x20 ADD SWAP1 DUP2 MSTORE PUSH1 0x20 ADD PUSH1 0x0 KECCAK256 PUSH1 0x1 ADD SLOAD SUB PUSH2 0x379 JUMPI PUSH1 0x40 MLOAD PUSH32 0x9A749D8100000000000000000000000000000000000000000000000000000000 DUP2 MSTORE PUSH1 0x4 ADD PUSH1 0x40 MLOAD DUP1 SWAP2 SUB SWAP1 REVERT JUMPDEST DUP3 TIMESTAMP PUSH1 0x0 DUP1 DUP4 DUP2 MSTORE PUSH1 0x20 ADD SWAP1 DUP2 MSTORE PUSH1 0x20 ADD PUSH1 0x0 KECCAK256 PUSH1 0x1 ADD SLOAD GT ISZERO DUP1 PUSH2 0x3C4 JUMPI POP PUSH1 0x0 ISZERO ISZERO PUSH1 0x0 DUP1 DUP4 DUP2 MSTORE PUSH1 0x20 ADD SWAP1 DUP2 MSTORE PUSH1 0x20 ADD PUSH1 0x0 KECCAK256 PUSH1 0x3 ADD PUSH1 0x14 SWAP1 SLOAD SWAP1 PUSH2 0x100 EXP SWAP1 DIV PUSH1 0xFF AND ISZERO ISZERO EQ JUMPDEST ISZERO PUSH2 0x3FB JUMPI PUSH1 0x40 MLOAD PUSH32 0x69B8D0FE00000000000000000000000000000000000000000000000000000000 DUP2 MSTORE PUSH1 0x4 ADD PUSH1 0x40 MLOAD DUP1 SWAP2 SUB SWAP1 REVERT JUMPDEST PUSH1 0x0 DUP1 DUP6 DUP2 MSTORE PUSH1 0x20 ADD SWAP1 DUP2 MSTORE PUSH1 0x20 ADD PUSH1 0x0 KECCAK256 PUSH1 0x2 ADD SLOAD DUP4 GT PUSH2 0x449 JUMPI PUSH1 0x40 MLOAD PUSH32 0xA0D26EB600000000000000000000000000000000000000000000000000000000 DUP2 MSTORE PUSH1 0x4 ADD PUSH1 0x40 MLOAD DUP1 SWAP2 SUB SWAP1 REVERT JUMPDEST DUP3 CALLVALUE EQ PUSH2 0x482 JUMPI PUSH1 0x40 MLOAD PUSH32 0x569E8C1100000000000000000000000000000000000000000000000000000000 DUP2 MSTORE PUSH1 0x4 ADD PUSH1 0x40 MLOAD DUP1 SWAP2 SUB SWAP1 REVERT JUMPDEST DUP3 PUSH1 0x0 DUP1 DUP7 DUP2 MSTORE PUSH1 0x20 ADD SWAP1 DUP2 MSTORE PUSH1 0x20 ADD PUSH1 0x0 KECCAK256 PUSH1 0x2 ADD DUP2 SWAP1 SSTORE POP CALLER PUSH1 0x0 DUP1 DUP7 DUP2 MSTORE PUSH1 0x20 ADD SWAP1 DUP2 MSTORE PUSH1 0x20 ADD PUSH1 0x0 KECCAK256 PUSH1 0x3 ADD PUSH1 0x0 PUSH2 0x100 EXP DUP2 SLOAD DUP2 PUSH20 0xFFFFFFFFFFFFFFFFFFFFFFFFFFFFFFFFFFFFFFFF MUL NOT AND SWAP1 DUP4 PUSH20 0xFFFFFFFFFFFFFFFFFFFFFFFFFFFFFFFFFFFFFFFF AND MUL OR SWAP1 SSTORE POP POP POP POP POP JUMP JUMPDEST PUSH1 0x0 DUP1 PUSH1 0x0 DUP1 DUP5 DUP2 MSTORE PUSH1 0x20 ADD SWAP1 DUP2 MSTORE PUSH1 0x20 ADD PUSH1 0x0 KECCAK256 PUSH1 0x1 ADD SLOAD EQ DUP1 PUSH2 0x541 JUMPI POP PUSH1 0x0 ISZERO ISZERO PUSH1 0x0 DUP1 DUP5 DUP2 MSTORE PUSH1 0x20 ADD SWAP1 DUP2 MSTORE PUSH1 0x20 ADD PUSH1 0x0 KECCAK256 PUSH1 0x3 ADD PUSH1 0x14 SWAP1 SLOAD SWAP1 PUSH2 0x100 EXP SWAP1 DIV PUSH1 0xFF AND ISZERO ISZERO EQ JUMPDEST ISZERO PUSH2 0x54F JUMPI PUSH1 0x0 SWAP1 POP PUSH2 0x588 JUMP JUMPDEST PUSH1 0x0 DUP1 DUP4 DUP2 MSTORE PUSH1 0x20 ADD SWAP1 DUP2 MSTORE PUSH1 0x20 ADD PUSH1 0x0 KECCAK256 PUSH1 0x3 ADD PUSH1 0x0 SWAP1 SLOAD SWAP1 PUSH2 0x100 EXP SWAP1 DIV PUSH20 0xFFFFFFFFFFFFFFFFFFFFFFFFFFFFFFFFFFFFFFFF AND SWAP1 POP JUMPDEST SWAP2 SWAP1 POP JUMP JUMPDEST PUSH32 0x0 DUP2 JUMP JUMPDEST PUSH32 0x0 PUSH20 0xFFFFFFFFFFFFFFFFFFFFFFFFFFFFFFFFFFFFFFFF AND CALLER PUSH20 0xFFFFFFFFFFFFFFFFFFFFFFFFFFFFFFFFFFFFFFFF AND EQ PUSH2 0x641 JUMPI CALLER PUSH1 0x40 MLOAD PUSH32 0x245AECD300000000000000000000000000000000000000000000000000000000 DUP2 MSTORE PUSH1 0x4 ADD PUSH2 0x638 SWAP2 SWAP1 PUSH2 0xB32 JUMP JUMPDEST PUSH1 0x40 MLOAD DUP1 SWAP2 SUB SWAP1 REVERT JUMPDEST DUP1 PUSH1 0x0 DUP1 PUSH1 0x0 DUP4 DUP2 MSTORE PUSH1 0x20 ADD SWAP1 DUP2 MSTORE PUSH1 0x20 ADD PUSH1 0x0 KECCAK256 PUSH1 0x1 ADD SLOAD SUB PUSH2 0x691 JUMPI PUSH1 0x40 MLOAD PUSH32 0x9A749D8100000000000000000000000000000000000000000000000000000000 DUP2 MSTORE PUSH1 0x4 ADD PUSH1 0x40 MLOAD DUP1 SWAP2 SUB SWAP1 REVERT JUMPDEST DUP2 TIMESTAMP PUSH1 0x0 DUP1 DUP4 DUP2 MSTORE PUSH1 0x20 ADD SWAP1 DUP2 MSTORE PUSH1 0x20 ADD PUSH1 0x0 KECCAK256 PUSH1 0x1 ADD SLOAD GT ISZERO DUP1 PUSH2 0x6DC JUMPI POP PUSH1 0x0 ISZERO ISZERO PUSH1 0x0 DUP1 DUP4 DUP2 MSTORE PUSH1 0x20 ADD SWAP1 DUP2 MSTORE PUSH1 0x20 ADD PUSH1 0x0 KECCAK256 PUSH1 0x3 ADD PUSH1 0x14 SWAP1 SLOAD SWAP1 PUSH2 0x100 EXP SWAP1 DIV PUSH1 0xFF AND ISZERO ISZERO EQ JUMPDEST ISZERO PUSH2 0x713 JUMPI PUSH1 0x40 MLOAD PUSH32 0x69B8D0FE00000000000000000000000000000000000000000000000000000000 DUP2 MSTORE PUSH1 0x4 ADD PUSH1 0x40 MLOAD DUP1 SWAP2 SUB SWAP1 REVERT JUMPDEST PUSH1 0x0 DUP1 PUSH1 0x0 DUP6 DUP2 MSTORE PUSH1 0x20 ADD SWAP1 DUP2 MSTORE PUSH1 0x20 ADD PUSH1 0x0 KECCAK256 PUSH1 0x3 ADD PUSH1 0x14 PUSH2 0x100 EXP DUP2 SLOAD DUP2 PUSH1 0xFF MUL NOT AND SWAP1 DUP4 ISZERO ISZERO MUL OR SWAP1 SSTORE POP POP POP POP JUMP JUMPDEST PUSH1 0x0 DUP2 PUSH1 0x0 DUP1 PUSH1 0x0 DUP4 DUP2 MSTORE PUSH1 0x20 ADD SWAP1 DUP2 MSTORE PUSH1 0x20 ADD PUSH1 0x0 KECCAK256 PUSH1 0x1 ADD SLOAD SUB PUSH2 0x798 JUMPI PUSH1 0x40 MLOAD PUSH32 0x9A749D8100000000000000000000000000000000000000000000000000000000 DUP2 MSTORE PUSH1 0x4 ADD PUSH1 0x40 MLOAD DUP1 SWAP2 SUB SWAP1 REVERT JUMPDEST DUP3 TIMESTAMP PUSH1 0x0 DUP1 DUP4 DUP2 MSTORE PUSH1 0x20 ADD SWAP1 DUP2 MSTORE PUSH1 0x20 ADD PUSH1 0x0 KECCAK256 PUSH1 0x1 ADD SLOAD GT ISZERO DUP1 PUSH2 0x7E3 JUMPI POP PUSH1 0x0 ISZERO ISZERO PUSH1 0x0 DUP1 DUP4 DUP2 MSTORE PUSH1 0x20 ADD SWAP1 DUP2 MSTORE PUSH1 0x20 ADD PUSH1 0x0 KECCAK256 PUSH1 0x3 ADD PUSH1 0x14 SWAP1 SLOAD SWAP1 PUSH2 0x100 EXP SWAP1 DIV PUSH1 0xFF AND ISZERO ISZERO EQ JUMPDEST ISZERO PUSH2 0x81A JUMPI PUSH1 0x40 MLOAD PUSH32 0x69B8D0FE00000000000000000000000000000000000000000000000000000000 DUP2 MSTORE PUSH1 0x4 ADD PUSH1 0x40 MLOAD DUP1 SWAP2 SUB SWAP1 REVERT JUMPDEST PUSH1 0x0 DUP1 DUP6 DUP2 MSTORE PUSH1 0x20 ADD SWAP1 DUP2 MSTORE PUSH1 0x20 ADD PUSH1 0x0 KECCAK256 PUSH1 0x2 ADD SLOAD SWAP3 POP POP POP SWAP2 SWAP1 POP JUMP JUMPDEST PUSH32 0x0 PUSH20 0xFFFFFFFFFFFFFFFFFFFFFFFFFFFFFFFFFFFFFFFF AND CALLER PUSH20 0xFFFFFFFFFFFFFFFFFFFFFFFFFFFFFFFFFFFFFFFF AND EQ PUSH2 0x8C9 JUMPI CALLER PUSH1 0x40 MLOAD PUSH32 0x245AECD300000000000000000000000000000000000000000000000000000000 DUP2 MSTORE PUSH1 0x4 ADD PUSH2 0x8C0 SWAP2 SWAP1 PUSH2 0xB32 JUMP JUMPDEST PUSH1 0x40 MLOAD DUP1 SWAP2 SUB SWAP1 REVERT JUMPDEST PUSH1 0x0 DUP1 PUSH1 0x0 DUP6 DUP2 MSTORE PUSH1 0x20 ADD SWAP1 DUP2 MSTORE PUSH1 0x20 ADD PUSH1 0x0 KECCAK256 PUSH1 0x1 ADD SLOAD EQ PUSH2 0x917 JUMPI PUSH1 0x40 MLOAD PUSH31 0xA1E25E00000000000000000000000000000000000000000000000000000000 DUP2 MSTORE PUSH1 0x4 ADD PUSH1 0x40 MLOAD DUP1 SWAP2 SUB SWAP1 REVERT JUMPDEST PUSH1 0x0 DUP3 EQ DUP1 PUSH2 0x926 JUMPI POP PUSH1 0x0 DUP2 EQ JUMPDEST ISZERO PUSH2 0x95D JUMPI PUSH1 0x40 MLOAD PUSH32 0xA2DC6C3A00000000000000000000000000000000000000000000000000000000 DUP2 MSTORE PUSH1 0x4 ADD PUSH1 0x40 MLOAD DUP1 SWAP2 SUB SWAP1 REVERT JUMPDEST DUP2 PUSH1 0x0 DUP1 DUP6 DUP2 MSTORE PUSH1 0x20 ADD SWAP1 DUP2 MSTORE PUSH1 0x20 ADD PUSH1 0x0 KECCAK256 PUSH1 0x0 ADD DUP2 SWAP1 SSTORE POP DUP1 TIMESTAMP PUSH2 0x983 SWAP2 SWAP1 PUSH2 0xC03 JUMP JUMPDEST PUSH1 0x0 DUP1 DUP6 DUP2 MSTORE PUSH1 0x20 ADD SWAP1 DUP2 MSTORE PUSH1 0x20 ADD PUSH1 0x0 KECCAK256 PUSH1 0x1 ADD DUP2 SWAP1 SSTORE POP DUP2 PUSH1 0x0 DUP1 DUP6 DUP2 MSTORE PUSH1 0x20 ADD SWAP1 DUP2 MSTORE PUSH1 0x20 ADD PUSH1 0x0 KECCAK256 PUSH1 0x2 ADD DUP2 SWAP1 SSTORE POP PUSH1 0x1 PUSH1 0x0 DUP1 DUP6 DUP2 MSTORE PUSH1 0x20 ADD SWAP1 DUP2 MSTORE PUSH1 0x20 ADD PUSH1 0x0 KECCAK256 PUSH1 0x3 ADD PUSH1 0x14 PUSH2 0x100 EXP DUP2 SLOAD DUP2 PUSH1 0xFF MUL NOT AND SWAP1 DUP4 ISZERO ISZERO MUL OR SWAP1 SSTORE POP POP POP POP JUMP JUMPDEST PUSH1 0x0 DUP1 REVERT JUMPDEST PUSH1 0x0 DUP2 SWAP1 POP SWAP2 SWAP1 POP JUMP JUMPDEST PUSH2 0xA01 DUP2 PUSH2 0x9EE JUMP JUMPDEST DUP2 EQ PUSH2 0xA0C JUMPI PUSH1 0x0 DUP1 REVERT JUMPDEST POP JUMP JUMPDEST PUSH1 0x0 DUP2 CALLDATALOAD SWAP1 POP PUSH2 0xA1E DUP2 PUSH2 0x9F8 JUMP JUMPDEST SWAP3 SWAP2 POP POP JUMP JUMPDEST PUSH1 0x0 PUSH1 0x20 DUP3 DUP5 SUB SLT ISZERO PUSH2 0xA3A JUMPI PUSH2 0xA39 PUSH2 0x9E9 JUMP JUMPDEST JUMPDEST PUSH1 0x0 PUSH2 0xA48 DUP5 DUP3 DUP6 ADD PUSH2 0xA0F JUMP JUMPDEST SWAP2 POP POP SWAP3 SWAP2 POP POP JUMP JUMPDEST PUSH1 0x0 DUP2 ISZERO ISZERO SWAP1 POP SWAP2 SWAP1 POP JUMP JUMPDEST PUSH2 0xA66 DUP2 PUSH2 0xA51 JUMP JUMPDEST DUP3 MSTORE POP POP JUMP JUMPDEST PUSH1 0x0 PUSH1 0x20 DUP3 ADD SWAP1 POP PUSH2 0xA81 PUSH1 0x0 DUP4 ADD DUP5 PUSH2 0xA5D JUMP JUMPDEST SWAP3 SWAP2 POP POP JUMP JUMPDEST PUSH2 0xA90 DUP2 PUSH2 0x9EE JUMP JUMPDEST DUP3 MSTORE POP POP JUMP JUMPDEST PUSH1 0x0 PUSH1 0x20 DUP3 ADD SWAP1 POP PUSH2 0xAAB PUSH1 0x0 DUP4 ADD DUP5 PUSH2 0xA87 JUMP JUMPDEST SWAP3 SWAP2 POP POP JUMP JUMPDEST PUSH1 0x0 DUP1 PUSH1 0x40 DUP4 DUP6 SUB SLT ISZERO PUSH2 0xAC8 JUMPI PUSH2 0xAC7 PUSH2 0x9E9 JUMP JUMPDEST JUMPDEST PUSH1 0x0 PUSH2 0xAD6 DUP6 DUP3 DUP7 ADD PUSH2 0xA0F JUMP JUMPDEST SWAP3 POP POP PUSH1 0x20 PUSH2 0xAE7 DUP6 DUP3 DUP7 ADD PUSH2 0xA0F JUMP JUMPDEST SWAP2 POP POP SWAP3 POP SWAP3 SWAP1 POP JUMP JUMPDEST PUSH1 0x0 PUSH20 0xFFFFFFFFFFFFFFFFFFFFFFFFFFFFFFFFFFFFFFFF DUP3 AND SWAP1 POP SWAP2 SWAP1 POP JUMP JUMPDEST PUSH1 0x0 PUSH2 0xB1C DUP3 PUSH2 0xAF1 JUMP JUMPDEST SWAP1 POP SWAP2 SWAP1 POP JUMP JUMPDEST PUSH2 0xB2C DUP2 PUSH2 0xB11 JUMP JUMPDEST DUP3 MSTORE POP POP JUMP JUMPDEST PUSH1 0x0 PUSH1 0x20 DUP3 ADD SWAP1 POP PUSH2 0xB47 PUSH1 0x0 DUP4 ADD DUP5 PUSH2 0xB23 JUMP JUMPDEST SWAP3 SWAP2 POP POP JUMP JUMPDEST PUSH1 0x0 DUP1 PUSH1 0x0 PUSH1 0x60 DUP5 DUP7 SUB SLT ISZERO PUSH2 0xB66 JUMPI PUSH2 0xB65 PUSH2 0x9E9 JUMP JUMPDEST JUMPDEST PUSH1 0x0 PUSH2 0xB74 DUP7 DUP3 DUP8 ADD PUSH2 0xA0F JUMP JUMPDEST SWAP4 POP POP PUSH1 0x20 PUSH2 0xB85 DUP7 DUP3 DUP8 ADD PUSH2 0xA0F JUMP JUMPDEST SWAP3 POP POP PUSH1 0x40 PUSH2 0xB96 DUP7 DUP3 DUP8 ADD PUSH2 0xA0F JUMP JUMPDEST SWAP2 POP POP SWAP3 POP SWAP3 POP SWAP3 JUMP JUMPDEST PUSH32 0x4E487B7100000000000000000000000000000000000000000000000000000000 PUSH1 0x0 MSTORE PUSH1 0x11 PUSH1 0x4 MSTORE PUSH1 0x24 PUSH1 0x0 REVERT JUMPDEST PUSH1 0x0 PUSH2 0xBDA DUP3 PUSH2 0x9EE JUMP JUMPDEST SWAP2 POP PUSH2 0xBE5 DUP4 PUSH2 0x9EE JUMP JUMPDEST SWAP3 POP DUP3 DUP3 SUB SWAP1 POP DUP2 DUP2 GT ISZERO PUSH2 0xBFD JUMPI PUSH2 0xBFC PUSH2 0xBA0 JUMP JUMPDEST JUMPDEST SWAP3 SWAP2 POP POP JUMP JUMPDEST PUSH1 0x0 PUSH2 0xC0E DUP3 PUSH2 0x9EE JUMP JUMPDEST SWAP2 POP PUSH2 0xC19 DUP4 PUSH2 0x9EE JUMP JUMPDEST SWAP3 POP DUP3 DUP3 ADD SWAP1 POP DUP1 DUP3 GT ISZERO PUSH2 0xC31 JUMPI PUSH2 0xC30 PUSH2 0xBA0 JUMP JUMPDEST JUMPDEST SWAP3 SWAP2 POP POP JUMP INVALID LOG2 PUSH5 0x6970667358 0x22 SLT KECCAK256 KECCAK256 SWAP10 MULMOD 0xF9 0xC4 PUSH31 0xCA8B5C0B87F29B15E3E1B13163B0E6D84AE3DCC7CFD43713A3664736F6C63 NUMBER STOP ADDMOD SHR STOP CALLER "
        },
        "methodIdentifiers": {
          "bid(uint256,uint256)": "598647f8",
          "cancelAuction(uint256)": "96b5a755",
          "checkActiveBidPrice(uint256)": "ca7948db",
          "checkAuctionActive(uint256)": "083ceba1",
          "checkHighestBidder(uint256)": "71babc66",
          "createAuction(uint256,uint256,uint256)": "cda4beef",
          "owner()": "8da5cb5b",
          "timeLeft(uint256)": "47cb7a68"
        }
      }
    }
  }
}