{
  "_format": "hh-sol-artifact-1",
  "contractName": "Auction",
  "sourceName": "contracts/Auction.sol",
  "abi": [
    {
      "inputs": [],
      "stateMutability": "nonpayable",
      "type": "constructor"
    },
    {
      "inputs": [],
      "name": "AuctionEnded",
      "type": "error"
    },
    {
      "inputs": [],
      "name": "AuctionNotActive",
      "type": "error"
    },
    {
      "inputs": [],
      "name": "BidTooLow",
      "type": "error"
    },
    {
      "inputs": [],
      "name": "IncorrectPayment",
      "type": "error"
    },
    {
      "inputs": [],
      "name": "InvalidValues",
      "type": "error"
    },
    {
      "inputs": [],
      "name": "ItemAlreadyExists",
      "type": "error"
    },
    {
      "inputs": [],
      "name": "ItemDoesNotExist",
      "type": "error"
    },
    {
      "inputs": [
        {
          "internalType": "address",
          "name": "caller",
          "type": "address"
        }
      ],
      "name": "NotOwner",
      "type": "error"
    },
    {
      "inputs": [
        {
          "internalType": "uint256",
          "name": "",
          "type": "uint256"
        },
        {
          "internalType": "address",
          "name": "",
          "type": "address"
        }
      ],
      "name": "Bidders",
      "outputs": [
        {
          "internalType": "uint256",
          "name": "",
          "type": "uint256"
        }
      ],
      "stateMutability": "view",
      "type": "function"
    },
    {
      "inputs": [
        {
          "internalType": "uint256",
          "name": "itemNumber",
          "type": "uint256"
        },
        {
          "internalType": "uint256",
          "name": "bidAmount",
          "type": "uint256"
        }
      ],
      "name": "bid",
      "outputs": [],
      "stateMutability": "payable",
      "type": "function"
    },
    {
      "inputs": [
        {
          "internalType": "uint256",
          "name": "itemNumber",
          "type": "uint256"
        }
      ],
      "name": "cancelAuction",
      "outputs": [],
      "stateMutability": "nonpayable",
      "type": "function"
    },
    {
      "inputs": [
        {
          "internalType": "uint256",
          "name": "itemNumber",
          "type": "uint256"
        }
      ],
      "name": "checkActiveBidPrice",
      "outputs": [
        {
          "internalType": "uint256",
          "name": "",
          "type": "uint256"
        }
      ],
      "stateMutability": "view",
      "type": "function"
    },
    {
      "inputs": [
        {
          "internalType": "uint256",
          "name": "itemNumber",
          "type": "uint256"
        }
      ],
      "name": "checkAuctionActive",
      "outputs": [
        {
          "internalType": "bool",
          "name": "",
          "type": "bool"
        }
      ],
      "stateMutability": "view",
      "type": "function"
    },
    {
      "inputs": [
        {
          "internalType": "uint256",
          "name": "itemNumber",
          "type": "uint256"
        }
      ],
      "name": "checkHighestBidder",
      "outputs": [
        {
          "internalType": "address",
          "name": "",
          "type": "address"
        }
      ],
      "stateMutability": "view",
      "type": "function"
    },
    {
      "inputs": [
        {
          "internalType": "uint256",
          "name": "itemNumber",
          "type": "uint256"
        },
        {
          "internalType": "uint256",
          "name": "startingPrice",
          "type": "uint256"
        },
        {
          "internalType": "uint256",
          "name": "duration",
          "type": "uint256"
        }
      ],
      "name": "createAuction",
      "outputs": [],
      "stateMutability": "nonpayable",
      "type": "function"
    },
    {
      "inputs": [
        {
          "internalType": "uint256",
          "name": "",
          "type": "uint256"
        }
      ],
      "name": "itemlist",
      "outputs": [
        {
          "internalType": "uint256",
          "name": "_startingPrice",
          "type": "uint256"
        },
        {
          "internalType": "uint256",
          "name": "_duration",
          "type": "uint256"
        },
        {
          "internalType": "uint256",
          "name": "high",
          "type": "uint256"
        },
        {
          "internalType": "address",
          "name": "highbid",
          "type": "address"
        },
        {
          "internalType": "bool",
          "name": "status",
          "type": "bool"
        }
      ],
      "stateMutability": "view",
      "type": "function"
    },
    {
      "inputs": [],
      "name": "owner",
      "outputs": [
        {
          "internalType": "address",
          "name": "",
          "type": "address"
        }
      ],
      "stateMutability": "view",
      "type": "function"
    },
    {
      "inputs": [
        {
          "internalType": "uint256",
          "name": "itemNumber",
          "type": "uint256"
        }
      ],
      "name": "timeLeft",
      "outputs": [
        {
          "internalType": "uint256",
          "name": "",
          "type": "uint256"
        }
      ],
      "stateMutability": "view",
      "type": "function"
    }
  ],
  "bytecode": "0x60a0604052348015600f57600080fd5b503373ffffffffffffffffffffffffffffffffffffffff1660808173ffffffffffffffffffffffffffffffffffffffff168152505060805161102161006d6000396000818161075e015281816107820152610a6d01526110216000f3fe6080604052600436106100915760003560e01c80638da5cb5b116100595780638da5cb5b146101a657806396b5a755146101d1578063a3554eba146101fa578063ca7948db1461023b578063cda4beef1461027857610091565b8063083ceba11461009657806347cb7a68146100d3578063598647f8146101105780636de41d5b1461012c57806371babc6614610169575b600080fd5b3480156100a257600080fd5b506100bd60048036038101906100b89190610c56565b6102a1565b6040516100ca9190610c9e565b60405180910390f35b3480156100df57600080fd5b506100fa60048036038101906100f59190610c56565b6102f4565b6040516101079190610cc8565b60405180910390f35b61012a60048036038101906101259190610ce3565b6103bd565b005b34801561013857600080fd5b50610153600480360381019061014e9190610d81565b6106a0565b6040516101609190610cc8565b60405180910390f35b34801561017557600080fd5b50610190600480360381019061018b9190610c56565b6106c5565b60405161019d9190610dd0565b60405180910390f35b3480156101b257600080fd5b506101bb61075c565b6040516101c89190610dd0565b60405180910390f35b3480156101dd57600080fd5b506101f860048036038101906101f39190610c56565b610780565b005b34801561020657600080fd5b50610221600480360381019061021c9190610c56565b610915565b604051610232959493929190610deb565b60405180910390f35b34801561024757600080fd5b50610262600480360381019061025d9190610c56565b610978565b60405161026f9190610cc8565b60405180910390f35b34801561028457600080fd5b5061029f600480360381019061029a9190610e3e565b610a6b565b005b600042600080848152602001908152602001600020600101541180156102ed57506001151560008084815260200190815260200160002060030160149054906101000a900460ff161515145b9050919050565b60008160008060008381526020019081526020016000206001015403610346576040517f9a749d8100000000000000000000000000000000000000000000000000000000815260040160405180910390fd5b426000808581526020019081526020016000206001015411610394576040517fa0e9298400000000000000000000000000000000000000000000000000000000815260040160405180910390fd5b42600080858152602001908152602001600020600101546103b59190610ec0565b915050919050565b816000806000838152602001908152602001600020600101540361040d576040517f9a749d8100000000000000000000000000000000000000000000000000000000815260040160405180910390fd5b82426000808381526020019081526020016000206001015411158061045857506000151560008083815260200190815260200160002060030160149054906101000a900460ff161515145b1561048f576040517f69b8d0fe00000000000000000000000000000000000000000000000000000000815260040160405180910390fd5b6000808581526020019081526020016000206002015483116104dd576040517fa0d26eb600000000000000000000000000000000000000000000000000000000815260040160405180910390fd5b823414610516576040517f569e8c1100000000000000000000000000000000000000000000000000000000815260040160405180910390fd5b600080600086815260200190815260200160002060020154111561062c57600080600086815260200190815260200160002060030160009054906101000a900473ffffffffffffffffffffffffffffffffffffffff1673ffffffffffffffffffffffffffffffffffffffff16600080878152602001908152602001600020600201546040516105a490610f25565b60006040518083038185875af1925050503d80600081146105e1576040519150601f19603f3d011682016040523d82523d6000602084013e6105e6565b606091505b505090508061062a576040517f08c379a000000000000000000000000000000000000000000000000000000000815260040161062190610f97565b60405180910390fd5b505b82600080868152602001908152602001600020600201819055503360008086815260200190815260200160002060030160006101000a81548173ffffffffffffffffffffffffffffffffffffffff021916908373ffffffffffffffffffffffffffffffffffffffff16021790555050505050565b6001602052816000526040600020602052806000526040600020600091509150505481565b60008060008084815260200190815260200160002060010154148061071057506000151560008084815260200190815260200160002060030160149054906101000a900460ff161515145b1561071e5760009050610757565b60008083815260200190815260200160002060030160009054906101000a900473ffffffffffffffffffffffffffffffffffffffff1690505b919050565b7f000000000000000000000000000000000000000000000000000000000000000081565b7f000000000000000000000000000000000000000000000000000000000000000073ffffffffffffffffffffffffffffffffffffffff163373ffffffffffffffffffffffffffffffffffffffff161461081057336040517f245aecd30000000000000000000000000000000000000000000000000000000081526004016108079190610dd0565b60405180910390fd5b8060008060008381526020019081526020016000206001015403610860576040517f9a749d8100000000000000000000000000000000000000000000000000000000815260040160405180910390fd5b8142600080838152602001908152602001600020600101541115806108ab57506000151560008083815260200190815260200160002060030160149054906101000a900460ff161515145b156108e2576040517f69b8d0fe00000000000000000000000000000000000000000000000000000000815260040160405180910390fd5b600080600085815260200190815260200160002060030160146101000a81548160ff021916908315150217905550505050565b60006020528060005260406000206000915090508060000154908060010154908060020154908060030160009054906101000a900473ffffffffffffffffffffffffffffffffffffffff16908060030160149054906101000a900460ff16905085565b600081600080600083815260200190815260200160002060010154036109ca576040517f9a749d8100000000000000000000000000000000000000000000000000000000815260040160405180910390fd5b824260008083815260200190815260200160002060010154111580610a1557506000151560008083815260200190815260200160002060030160149054906101000a900460ff161515145b15610a4c576040517f69b8d0fe00000000000000000000000000000000000000000000000000000000815260040160405180910390fd5b6000808581526020019081526020016000206002015492505050919050565b7f000000000000000000000000000000000000000000000000000000000000000073ffffffffffffffffffffffffffffffffffffffff163373ffffffffffffffffffffffffffffffffffffffff1614610afb57336040517f245aecd3000000000000000000000000000000000000000000000000000000008152600401610af29190610dd0565b60405180910390fd5b60008060008581526020019081526020016000206001015414610b49576040517ea1e25e00000000000000000000000000000000000000000000000000000000815260040160405180910390fd5b6000821480610b585750600081145b15610b8f576040517fa2dc6c3a00000000000000000000000000000000000000000000000000000000815260040160405180910390fd5b81600080858152602001908152602001600020600001819055508042610bb59190610fb7565b600080858152602001908152602001600020600101819055508160008085815260200190815260200160002060020181905550600160008085815260200190815260200160002060030160146101000a81548160ff021916908315150217905550505050565b600080fd5b6000819050919050565b610c3381610c20565b8114610c3e57600080fd5b50565b600081359050610c5081610c2a565b92915050565b600060208284031215610c6c57610c6b610c1b565b5b6000610c7a84828501610c41565b91505092915050565b60008115159050919050565b610c9881610c83565b82525050565b6000602082019050610cb36000830184610c8f565b92915050565b610cc281610c20565b82525050565b6000602082019050610cdd6000830184610cb9565b92915050565b60008060408385031215610cfa57610cf9610c1b565b5b6000610d0885828601610c41565b9250506020610d1985828601610c41565b9150509250929050565b600073ffffffffffffffffffffffffffffffffffffffff82169050919050565b6000610d4e82610d23565b9050919050565b610d5e81610d43565b8114610d6957600080fd5b50565b600081359050610d7b81610d55565b92915050565b60008060408385031215610d9857610d97610c1b565b5b6000610da685828601610c41565b9250506020610db785828601610d6c565b9150509250929050565b610dca81610d43565b82525050565b6000602082019050610de56000830184610dc1565b92915050565b600060a082019050610e006000830188610cb9565b610e0d6020830187610cb9565b610e1a6040830186610cb9565b610e276060830185610dc1565b610e346080830184610c8f565b9695505050505050565b600080600060608486031215610e5757610e56610c1b565b5b6000610e6586828701610c41565b9350506020610e7686828701610c41565b9250506040610e8786828701610c41565b9150509250925092565b7f4e487b7100000000000000000000000000000000000000000000000000000000600052601160045260246000fd5b6000610ecb82610c20565b9150610ed683610c20565b9250828203905081811115610eee57610eed610e91565b5b92915050565b600081905092915050565b50565b6000610f0f600083610ef4565b9150610f1a82610eff565b600082019050919050565b6000610f3082610f02565b9150819050919050565b600082825260208201905092915050565b7f5472616e73616374696f6e204661696c65640000000000000000000000000000600082015250565b6000610f81601283610f3a565b9150610f8c82610f4b565b602082019050919050565b60006020820190508181036000830152610fb081610f74565b9050919050565b6000610fc282610c20565b9150610fcd83610c20565b9250828201905080821115610fe557610fe4610e91565b5b9291505056fea26469706673582212204342c34774dd1cca0e8b0505436ad310ffb2ee40f2ace774224445ce5529b21864736f6c634300081c0033",
  "linkReferences": {},
  "deployedLinkReferences": {}
}