{
  "_format": "hh-sol-artifact-1",
  "contractName": "Auction",
  "sourceName": "contracts/Auction.sol",
  "abi": [
    {
      "inputs": [],
      "stateMutability": "nonpayable",
      "type": "constructor"
    },
    {
      "inputs": [],
      "name": "AuctionEnded",
      "type": "error"
    },
    {
      "inputs": [],
      "name": "AuctionNotActive",
      "type": "error"
    },
    {
      "inputs": [],
      "name": "BidTooLow",
      "type": "error"
    },
    {
      "inputs": [],
      "name": "IncorrectPayment",
      "type": "error"
    },
    {
      "inputs": [],
      "name": "InvalidValues",
      "type": "error"
    },
    {
      "inputs": [],
      "name": "ItemAlreadyExists",
      "type": "error"
    },
    {
      "inputs": [],
      "name": "ItemDoesNotExist",
      "type": "error"
    },
    {
      "inputs": [
        {
          "internalType": "address",
          "name": "caller",
          "type": "address"
        }
      ],
      "name": "NotOwner",
      "type": "error"
    },
    {
      "inputs": [
        {
          "internalType": "uint256",
          "name": "itemNumber",
          "type": "uint256"
        },
        {
          "internalType": "uint256",
          "name": "bidAmount",
          "type": "uint256"
        }
      ],
      "name": "bid",
      "outputs": [],
      "stateMutability": "payable",
      "type": "function"
    },
    {
      "inputs": [
        {
          "internalType": "uint256",
          "name": "itemNumber",
          "type": "uint256"
        }
      ],
      "name": "cancelAuction",
      "outputs": [],
      "stateMutability": "nonpayable",
      "type": "function"
    },
    {
      "inputs": [
        {
          "internalType": "uint256",
          "name": "itemNumber",
          "type": "uint256"
        }
      ],
      "name": "checkActiveBidPrice",
      "outputs": [
        {
          "internalType": "uint256",
          "name": "",
          "type": "uint256"
        }
      ],
      "stateMutability": "view",
      "type": "function"
    },
    {
      "inputs": [
        {
          "internalType": "uint256",
          "name": "itemNumber",
          "type": "uint256"
        }
      ],
      "name": "checkAuctionActive",
      "outputs": [
        {
          "internalType": "bool",
          "name": "",
          "type": "bool"
        }
      ],
      "stateMutability": "view",
      "type": "function"
    },
    {
      "inputs": [
        {
          "internalType": "uint256",
          "name": "itemNumber",
          "type": "uint256"
        }
      ],
      "name": "checkHighestBidder",
      "outputs": [
        {
          "internalType": "address",
          "name": "",
          "type": "address"
        }
      ],
      "stateMutability": "view",
      "type": "function"
    },
    {
      "inputs": [
        {
          "internalType": "uint256",
          "name": "itemNumber",
          "type": "uint256"
        },
        {
          "internalType": "uint256",
          "name": "startingPrice",
          "type": "uint256"
        },
        {
          "internalType": "uint256",
          "name": "duration",
          "type": "uint256"
        }
      ],
      "name": "createAuction",
      "outputs": [],
      "stateMutability": "nonpayable",
      "type": "function"
    },
    {
      "inputs": [],
      "name": "owner",
      "outputs": [
        {
          "internalType": "address",
          "name": "",
          "type": "address"
        }
      ],
      "stateMutability": "view",
      "type": "function"
    },
    {
      "inputs": [
        {
          "internalType": "uint256",
          "name": "itemNumber",
          "type": "uint256"
        }
      ],
      "name": "timeLeft",
      "outputs": [
        {
          "internalType": "uint256",
          "name": "",
          "type": "uint256"
        }
      ],
      "stateMutability": "view",
      "type": "function"
    }
  ],
  "bytecode": "0x60a0604052348015600f57600080fd5b503373ffffffffffffffffffffffffffffffffffffffff1660808173ffffffffffffffffffffffffffffffffffffffff1681525050608051610c6d61006d6000396000818161058f015281816105b3015261083b0152610c6d6000f3fe60806040526004361061007b5760003560e01c80638da5cb5b1161004e5780638da5cb5b1461015357806396b5a7551461017e578063ca7948db146101a7578063cda4beef146101e45761007b565b8063083ceba11461008057806347cb7a68146100bd578063598647f8146100fa57806371babc6614610116575b600080fd5b34801561008c57600080fd5b506100a760048036038101906100a29190610a24565b61020d565b6040516100b49190610a6c565b60405180910390f35b3480156100c957600080fd5b506100e460048036038101906100df9190610a24565b610260565b6040516100f19190610a96565b60405180910390f35b610114600480360381019061010f9190610ab1565b610329565b005b34801561012257600080fd5b5061013d60048036038101906101389190610a24565b6104f6565b60405161014a9190610b32565b60405180910390f35b34801561015f57600080fd5b5061016861058d565b6040516101759190610b32565b60405180910390f35b34801561018a57600080fd5b506101a560048036038101906101a09190610a24565b6105b1565b005b3480156101b357600080fd5b506101ce60048036038101906101c99190610a24565b610746565b6040516101db9190610a96565b60405180910390f35b3480156101f057600080fd5b5061020b60048036038101906102069190610b4d565b610839565b005b6000426000808481526020019081526020016000206001015411801561025957506001151560008084815260200190815260200160002060030160149054906101000a900460ff161515145b9050919050565b600081600080600083815260200190815260200160002060010154036102b2576040517f9a749d8100000000000000000000000000000000000000000000000000000000815260040160405180910390fd5b426000808581526020019081526020016000206001015411610300576040517fa0e9298400000000000000000000000000000000000000000000000000000000815260040160405180910390fd5b42600080858152602001908152602001600020600101546103219190610bcf565b915050919050565b8160008060008381526020019081526020016000206001015403610379576040517f9a749d8100000000000000000000000000000000000000000000000000000000815260040160405180910390fd5b8242600080838152602001908152602001600020600101541115806103c457506000151560008083815260200190815260200160002060030160149054906101000a900460ff161515145b156103fb576040517f69b8d0fe00000000000000000000000000000000000000000000000000000000815260040160405180910390fd5b600080858152602001908152602001600020600201548311610449576040517fa0d26eb600000000000000000000000000000000000000000000000000000000815260040160405180910390fd5b823414610482576040517f569e8c1100000000000000000000000000000000000000000000000000000000815260040160405180910390fd5b82600080868152602001908152602001600020600201819055503360008086815260200190815260200160002060030160006101000a81548173ffffffffffffffffffffffffffffffffffffffff021916908373ffffffffffffffffffffffffffffffffffffffff16021790555050505050565b60008060008084815260200190815260200160002060010154148061054157506000151560008084815260200190815260200160002060030160149054906101000a900460ff161515145b1561054f5760009050610588565b60008083815260200190815260200160002060030160009054906101000a900473ffffffffffffffffffffffffffffffffffffffff1690505b919050565b7f000000000000000000000000000000000000000000000000000000000000000081565b7f000000000000000000000000000000000000000000000000000000000000000073ffffffffffffffffffffffffffffffffffffffff163373ffffffffffffffffffffffffffffffffffffffff161461064157336040517f245aecd30000000000000000000000000000000000000000000000000000000081526004016106389190610b32565b60405180910390fd5b8060008060008381526020019081526020016000206001015403610691576040517f9a749d8100000000000000000000000000000000000000000000000000000000815260040160405180910390fd5b8142600080838152602001908152602001600020600101541115806106dc57506000151560008083815260200190815260200160002060030160149054906101000a900460ff161515145b15610713576040517f69b8d0fe00000000000000000000000000000000000000000000000000000000815260040160405180910390fd5b600080600085815260200190815260200160002060030160146101000a81548160ff021916908315150217905550505050565b60008160008060008381526020019081526020016000206001015403610798576040517f9a749d8100000000000000000000000000000000000000000000000000000000815260040160405180910390fd5b8242600080838152602001908152602001600020600101541115806107e357506000151560008083815260200190815260200160002060030160149054906101000a900460ff161515145b1561081a576040517f69b8d0fe00000000000000000000000000000000000000000000000000000000815260040160405180910390fd5b6000808581526020019081526020016000206002015492505050919050565b7f000000000000000000000000000000000000000000000000000000000000000073ffffffffffffffffffffffffffffffffffffffff163373ffffffffffffffffffffffffffffffffffffffff16146108c957336040517f245aecd30000000000000000000000000000000000000000000000000000000081526004016108c09190610b32565b60405180910390fd5b60008060008581526020019081526020016000206001015414610917576040517ea1e25e00000000000000000000000000000000000000000000000000000000815260040160405180910390fd5b60008214806109265750600081145b1561095d576040517fa2dc6c3a00000000000000000000000000000000000000000000000000000000815260040160405180910390fd5b816000808581526020019081526020016000206000018190555080426109839190610c03565b600080858152602001908152602001600020600101819055508160008085815260200190815260200160002060020181905550600160008085815260200190815260200160002060030160146101000a81548160ff021916908315150217905550505050565b600080fd5b6000819050919050565b610a01816109ee565b8114610a0c57600080fd5b50565b600081359050610a1e816109f8565b92915050565b600060208284031215610a3a57610a396109e9565b5b6000610a4884828501610a0f565b91505092915050565b60008115159050919050565b610a6681610a51565b82525050565b6000602082019050610a816000830184610a5d565b92915050565b610a90816109ee565b82525050565b6000602082019050610aab6000830184610a87565b92915050565b60008060408385031215610ac857610ac76109e9565b5b6000610ad685828601610a0f565b9250506020610ae785828601610a0f565b9150509250929050565b600073ffffffffffffffffffffffffffffffffffffffff82169050919050565b6000610b1c82610af1565b9050919050565b610b2c81610b11565b82525050565b6000602082019050610b476000830184610b23565b92915050565b600080600060608486031215610b6657610b656109e9565b5b6000610b7486828701610a0f565b9350506020610b8586828701610a0f565b9250506040610b9686828701610a0f565b9150509250925092565b7f4e487b7100000000000000000000000000000000000000000000000000000000600052601160045260246000fd5b6000610bda826109ee565b9150610be5836109ee565b9250828203905081811115610bfd57610bfc610ba0565b5b92915050565b6000610c0e826109ee565b9150610c19836109ee565b9250828201905080821115610c3157610c30610ba0565b5b9291505056fea2646970667358221220209909f9c47e0ca8b5c0b87f29b15e3e1b13163b0e6d84ae3dcc7cfd43713a3664736f6c634300081c0033",
  "linkReferences": {},
  "deployedLinkReferences": {}
}