{
  "_format": "hh-sol-artifact-1",
  "contractName": "ERC20Permit",
  "sourceName": "contracts/ERC-20.sol",
  "abi": [
    {
      "inputs": [],
      "stateMutability": "nonpayable",
      "type": "constructor"
    },
    {
      "inputs": [],
      "name": "InsufficientBalance",
      "type": "error"
    },
    {
      "inputs": [],
      "name": "InvalidAddress",
      "type": "error"
    },
    {
      "inputs": [],
      "name": "InvalidAmount",
      "type": "error"
    },
    {
      "inputs": [],
      "name": "NotAllowed",
      "type": "error"
    },
    {
      "inputs": [
        {
          "internalType": "address",
          "name": "caller",
          "type": "address"
        }
      ],
      "name": "NotOwner",
      "type": "error"
    },
    {
      "anonymous": false,
      "inputs": [
        {
          "indexed": false,
          "internalType": "address",
          "name": "approver",
          "type": "address"
        },
        {
          "indexed": false,
          "internalType": "address",
          "name": "receiver",
          "type": "address"
        },
        {
          "indexed": false,
          "internalType": "uint256",
          "name": "_amount",
          "type": "uint256"
        }
      ],
      "name": "_approve",
      "type": "event"
    },
    {
      "anonymous": false,
      "inputs": [
        {
          "indexed": false,
          "internalType": "address",
          "name": "_sender",
          "type": "address"
        },
        {
          "indexed": false,
          "internalType": "address",
          "name": "receiver",
          "type": "address"
        },
        {
          "indexed": false,
          "internalType": "uint256",
          "name": "_amount",
          "type": "uint256"
        }
      ],
      "name": "_transfer",
      "type": "event"
    },
    {
      "anonymous": false,
      "inputs": [
        {
          "indexed": false,
          "internalType": "address",
          "name": "_sender",
          "type": "address"
        },
        {
          "indexed": false,
          "internalType": "address",
          "name": "receiver",
          "type": "address"
        },
        {
          "indexed": false,
          "internalType": "uint256",
          "name": "_amount",
          "type": "uint256"
        }
      ],
      "name": "_transferFrom",
      "type": "event"
    },
    {
      "inputs": [
        {
          "internalType": "address",
          "name": "",
          "type": "address"
        },
        {
          "internalType": "address",
          "name": "",
          "type": "address"
        }
      ],
      "name": "Allowances",
      "outputs": [
        {
          "internalType": "uint256",
          "name": "",
          "type": "uint256"
        }
      ],
      "stateMutability": "view",
      "type": "function"
    },
    {
      "inputs": [
        {
          "internalType": "address",
          "name": "",
          "type": "address"
        }
      ],
      "name": "Members",
      "outputs": [
        {
          "internalType": "uint256",
          "name": "",
          "type": "uint256"
        }
      ],
      "stateMutability": "view",
      "type": "function"
    },
    {
      "inputs": [
        {
          "internalType": "address",
          "name": "member",
          "type": "address"
        },
        {
          "internalType": "uint256",
          "name": "amount",
          "type": "uint256"
        }
      ],
      "name": "Register",
      "outputs": [],
      "stateMutability": "nonpayable",
      "type": "function"
    },
    {
      "inputs": [
        {
          "internalType": "address",
          "name": "_recepient",
          "type": "address"
        },
        {
          "internalType": "uint256",
          "name": "amount",
          "type": "uint256"
        }
      ],
      "name": "approve",
      "outputs": [],
      "stateMutability": "nonpayable",
      "type": "function"
    },
    {
      "inputs": [],
      "name": "decimals",
      "outputs": [
        {
          "internalType": "uint8",
          "name": "",
          "type": "uint8"
        }
      ],
      "stateMutability": "view",
      "type": "function"
    },
    {
      "inputs": [],
      "name": "name",
      "outputs": [
        {
          "internalType": "string",
          "name": "",
          "type": "string"
        }
      ],
      "stateMutability": "view",
      "type": "function"
    },
    {
      "inputs": [],
      "name": "owner",
      "outputs": [
        {
          "internalType": "address",
          "name": "",
          "type": "address"
        }
      ],
      "stateMutability": "view",
      "type": "function"
    },
    {
      "inputs": [],
      "name": "symbol",
      "outputs": [
        {
          "internalType": "string",
          "name": "",
          "type": "string"
        }
      ],
      "stateMutability": "view",
      "type": "function"
    },
    {
      "inputs": [],
      "name": "totalSupply",
      "outputs": [
        {
          "internalType": "uint256",
          "name": "",
          "type": "uint256"
        }
      ],
      "stateMutability": "view",
      "type": "function"
    },
    {
      "inputs": [
        {
          "internalType": "address",
          "name": "_recepient",
          "type": "address"
        },
        {
          "internalType": "uint256",
          "name": "amount",
          "type": "uint256"
        }
      ],
      "name": "transfer",
      "outputs": [],
      "stateMutability": "nonpayable",
      "type": "function"
    },
    {
      "inputs": [
        {
          "internalType": "address",
          "name": "sender",
          "type": "address"
        },
        {
          "internalType": "address",
          "name": "_recepient",
          "type": "address"
        },
        {
          "internalType": "uint256",
          "name": "amount",
          "type": "uint256"
        }
      ],
      "name": "transferFrom",
      "outputs": [],
      "stateMutability": "nonpayable",
      "type": "function"
    }
  ],
  "bytecode": "0x60c060405234801561001057600080fd5b503373ffffffffffffffffffffffffffffffffffffffff1660a08173ffffffffffffffffffffffffffffffffffffffff16815250506012600a610053919061022d565b620f42406100619190610278565b6080818152505060805160008060a05173ffffffffffffffffffffffffffffffffffffffff1673ffffffffffffffffffffffffffffffffffffffff168152602001908152602001600020819055506102ba565b7f4e487b7100000000000000000000000000000000000000000000000000000000600052601160045260246000fd5b60008160011c9050919050565b6000808291508390505b600185111561013a57808604811115610116576101156100b4565b5b60018516156101255780820291505b8081029050610133856100e3565b94506100fa565b94509492505050565b600082610153576001905061020f565b81610161576000905061020f565b81600181146101775760028114610181576101b0565b600191505061020f565b60ff841115610193576101926100b4565b5b8360020a9150848211156101aa576101a96100b4565b5b5061020f565b5060208310610133831016604e8410600b84101617156101e55782820a9050838111156101e0576101df6100b4565b5b61020f565b6101f284848460016100f0565b92509050818404811115610209576102086100b4565b5b81810290505b9392505050565b6000819050919050565b600060ff82169050919050565b600061023882610216565b915061024383610220565b92506102707fffffffffffffffffffffffffffffffffffffffffffffffffffffffffffffffff8484610143565b905092915050565b600061028382610216565b915061028e83610216565b925082820261029c81610216565b915082820484148315176102b3576102b26100b4565b5b5092915050565b60805160a0516111256102f46000396000818161027c01528181610350015281816103e60152610aac015260006106ca01526111256000f3fe608060405234801561001057600080fd5b50600436106100a85760003560e01c8063313ce56711610071578063313ce5671461013d5780638da5cb5b1461015b57806395d89b4114610179578063a9059cbb14610197578063d8495aae146101b3578063fd0f0166146101e3576100a8565b80627dc6ab146100ad57806306fdde03146100c9578063095ea7b3146100e757806318160ddd1461010357806323b872dd14610121575b600080fd5b6100c760048036038101906100c29190610de4565b610213565b005b6100d16104b1565b6040516100de9190610eb4565b60405180910390f35b61010160048036038101906100fc9190610de4565b6104ea565b005b61010b6106c8565b6040516101189190610ee5565b60405180910390f35b61013b60048036038101906101369190610f00565b6106ec565b005b610145610aa5565b6040516101529190610f6f565b60405180910390f35b610163610aaa565b6040516101709190610f99565b60405180910390f35b610181610ace565b60405161018e9190610eb4565b60405180910390f35b6101b160048036038101906101ac9190610de4565b610b07565b005b6101cd60048036038101906101c89190610fb4565b610d0e565b6040516101da9190610ee5565b60405180910390f35b6101fd60048036038101906101f89190610ff4565b610d33565b60405161020a9190610ee5565b60405180910390f35b81600073ffffffffffffffffffffffffffffffffffffffff168173ffffffffffffffffffffffffffffffffffffffff160361027a576040517fe6c4247b00000000000000000000000000000000000000000000000000000000815260040160405180910390fd5b7f000000000000000000000000000000000000000000000000000000000000000082600081116102d6576040517f2c5211c600000000000000000000000000000000000000000000000000000000815260040160405180910390fd5b806000808473ffffffffffffffffffffffffffffffffffffffff1673ffffffffffffffffffffffffffffffffffffffff16815260200190815260200160002054101561034e576040517ff4d678b800000000000000000000000000000000000000000000000000000000815260040160405180910390fd5b7f000000000000000000000000000000000000000000000000000000000000000073ffffffffffffffffffffffffffffffffffffffff163373ffffffffffffffffffffffffffffffffffffffff161433906103df576040517f245aecd30000000000000000000000000000000000000000000000000000000081526004016103d69190610f99565b60405180910390fd5b50836000807f000000000000000000000000000000000000000000000000000000000000000073ffffffffffffffffffffffffffffffffffffffff1673ffffffffffffffffffffffffffffffffffffffff168152602001908152602001600020600082825461044e9190611050565b92505081905550836000808773ffffffffffffffffffffffffffffffffffffffff1673ffffffffffffffffffffffffffffffffffffffff16815260200190815260200160002060008282546104a39190611084565b925050819055505050505050565b6040518060400160405280600881526020017f4a6f62546f6b656e00000000000000000000000000000000000000000000000081525081565b81600073ffffffffffffffffffffffffffffffffffffffff168173ffffffffffffffffffffffffffffffffffffffff1603610551576040517fe6c4247b00000000000000000000000000000000000000000000000000000000815260040160405180910390fd5b33826000811161058d576040517f2c5211c600000000000000000000000000000000000000000000000000000000815260040160405180910390fd5b806000808473ffffffffffffffffffffffffffffffffffffffff1673ffffffffffffffffffffffffffffffffffffffff168152602001908152602001600020541015610605576040517ff4d678b800000000000000000000000000000000000000000000000000000000815260040160405180910390fd5b83600160003373ffffffffffffffffffffffffffffffffffffffff1673ffffffffffffffffffffffffffffffffffffffff16815260200190815260200160002060008773ffffffffffffffffffffffffffffffffffffffff1673ffffffffffffffffffffffffffffffffffffffff168152602001908152602001600020819055507f104e81ffdd30e0ac00d3ab6803480d85f06715325c6d991471fe6a3afbef24013386866040516106b9939291906110b8565b60405180910390a15050505050565b7f000000000000000000000000000000000000000000000000000000000000000081565b82600073ffffffffffffffffffffffffffffffffffffffff168173ffffffffffffffffffffffffffffffffffffffff1603610753576040517fe6c4247b00000000000000000000000000000000000000000000000000000000815260040160405180910390fd5b82600073ffffffffffffffffffffffffffffffffffffffff168173ffffffffffffffffffffffffffffffffffffffff16036107ba576040517fe6c4247b00000000000000000000000000000000000000000000000000000000815260040160405180910390fd5b8483600081116107f6576040517f2c5211c600000000000000000000000000000000000000000000000000000000815260040160405180910390fd5b806000808473ffffffffffffffffffffffffffffffffffffffff1673ffffffffffffffffffffffffffffffffffffffff16815260200190815260200160002054101561086e576040517ff4d678b800000000000000000000000000000000000000000000000000000000815260040160405180910390fd5b84600160008973ffffffffffffffffffffffffffffffffffffffff1673ffffffffffffffffffffffffffffffffffffffff16815260200190815260200160002060003373ffffffffffffffffffffffffffffffffffffffff1673ffffffffffffffffffffffffffffffffffffffff168152602001908152602001600020541015610924576040517f3d693ada00000000000000000000000000000000000000000000000000000000815260040160405180910390fd5b846000808973ffffffffffffffffffffffffffffffffffffffff1673ffffffffffffffffffffffffffffffffffffffff16815260200190815260200160002060008282546109729190611050565b92505081905550846000808873ffffffffffffffffffffffffffffffffffffffff1673ffffffffffffffffffffffffffffffffffffffff16815260200190815260200160002060008282546109c79190611084565b9250508190555084600160008973ffffffffffffffffffffffffffffffffffffffff1673ffffffffffffffffffffffffffffffffffffffff16815260200190815260200160002060003373ffffffffffffffffffffffffffffffffffffffff1673ffffffffffffffffffffffffffffffffffffffff1681526020019081526020016000206000828254610a5a9190611050565b925050819055507fcb71253509ebc6a6dacb73bae1f9f4f8c7c7cde869ded59b7e86a8b9e8c1ba2c878787604051610a94939291906110b8565b60405180910390a150505050505050565b601281565b7f000000000000000000000000000000000000000000000000000000000000000081565b6040518060400160405280600381526020017f4a4254000000000000000000000000000000000000000000000000000000000081525081565b81600073ffffffffffffffffffffffffffffffffffffffff168173ffffffffffffffffffffffffffffffffffffffff1603610b6e576040517fe6c4247b00000000000000000000000000000000000000000000000000000000815260040160405180910390fd5b338260008111610baa576040517f2c5211c600000000000000000000000000000000000000000000000000000000815260040160405180910390fd5b806000808473ffffffffffffffffffffffffffffffffffffffff1673ffffffffffffffffffffffffffffffffffffffff168152602001908152602001600020541015610c22576040517ff4d678b800000000000000000000000000000000000000000000000000000000815260040160405180910390fd5b836000803373ffffffffffffffffffffffffffffffffffffffff1673ffffffffffffffffffffffffffffffffffffffff1681526020019081526020016000206000828254610c709190611050565b92505081905550836000808773ffffffffffffffffffffffffffffffffffffffff1673ffffffffffffffffffffffffffffffffffffffff1681526020019081526020016000206000828254610cc59190611084565b925050819055507f30e0789ed23094f42b5810cbdf4e48a0478aec0b37810e24e912443dd0032b3c338686604051610cff939291906110b8565b60405180910390a15050505050565b6001602052816000526040600020602052806000526040600020600091509150505481565b60006020528060005260406000206000915090505481565b600080fd5b600073ffffffffffffffffffffffffffffffffffffffff82169050919050565b6000610d7b82610d50565b9050919050565b610d8b81610d70565b8114610d9657600080fd5b50565b600081359050610da881610d82565b92915050565b6000819050919050565b610dc181610dae565b8114610dcc57600080fd5b50565b600081359050610dde81610db8565b92915050565b60008060408385031215610dfb57610dfa610d4b565b5b6000610e0985828601610d99565b9250506020610e1a85828601610dcf565b9150509250929050565b600081519050919050565b600082825260208201905092915050565b60005b83811015610e5e578082015181840152602081019050610e43565b60008484015250505050565b6000601f19601f8301169050919050565b6000610e8682610e24565b610e908185610e2f565b9350610ea0818560208601610e40565b610ea981610e6a565b840191505092915050565b60006020820190508181036000830152610ece8184610e7b565b905092915050565b610edf81610dae565b82525050565b6000602082019050610efa6000830184610ed6565b92915050565b600080600060608486031215610f1957610f18610d4b565b5b6000610f2786828701610d99565b9350506020610f3886828701610d99565b9250506040610f4986828701610dcf565b9150509250925092565b600060ff82169050919050565b610f6981610f53565b82525050565b6000602082019050610f846000830184610f60565b92915050565b610f9381610d70565b82525050565b6000602082019050610fae6000830184610f8a565b92915050565b60008060408385031215610fcb57610fca610d4b565b5b6000610fd985828601610d99565b9250506020610fea85828601610d99565b9150509250929050565b60006020828403121561100a57611009610d4b565b5b600061101884828501610d99565b91505092915050565b7f4e487b7100000000000000000000000000000000000000000000000000000000600052601160045260246000fd5b600061105b82610dae565b915061106683610dae565b925082820390508181111561107e5761107d611021565b5b92915050565b600061108f82610dae565b915061109a83610dae565b92508282019050808211156110b2576110b1611021565b5b92915050565b60006060820190506110cd6000830186610f8a565b6110da6020830185610f8a565b6110e76040830184610ed6565b94935050505056fea2646970667358221220202caca1751d3a4f9174bf2682db83da69048feb5d00c16409a7c858653fc27364736f6c634300081c0033",
  "linkReferences": {},
  "deployedLinkReferences": {}
}