{
  "_format": "hh-sol-artifact-1",
  "contractName": "Logic2",
  "sourceName": "contracts/Logic2.sol",
  "abi": [
    {
      "inputs": [],
      "name": "decrement",
      "outputs": [],
      "stateMutability": "nonpayable",
      "type": "function"
    },
    {
      "inputs": [],
      "name": "getCount",
      "outputs": [
        {
          "internalType": "uint256",
          "name": "",
          "type": "uint256"
        }
      ],
      "stateMutability": "view",
      "type": "function"
    },
    {
      "inputs": [],
      "name": "increment",
      "outputs": [],
      "stateMutability": "nonpayable",
      "type": "function"
    }
  ],
  "bytecode": "0x6080604052348015600f57600080fd5b506101bd8061001f6000396000f3fe608060405234801561001057600080fd5b50600436106100415760003560e01c80632baeceb714610046578063a87d942c14610050578063d09de08a1461006e575b600080fd5b61004e610078565b005b610058610091565b60405161006591906100cc565b60405180910390f35b61007661009a565b005b60008081548092919061008a90610116565b9190505550565b60008054905090565b6000808154809291906100ac9061013f565b9190505550565b6000819050919050565b6100c6816100b3565b82525050565b60006020820190506100e160008301846100bd565b92915050565b7f4e487b7100000000000000000000000000000000000000000000000000000000600052601160045260246000fd5b6000610121826100b3565b915060008203610134576101336100e7565b5b600182039050919050565b600061014a826100b3565b91507fffffffffffffffffffffffffffffffffffffffffffffffffffffffffffffffff820361017c5761017b6100e7565b5b60018201905091905056fea2646970667358221220a2cd632ce3da7af14fa64fb8d6f879d612df44d82f5c5652166a637866b40f2e64736f6c634300081c0033",
  "linkReferences": {},
  "deployedLinkReferences": {}
}