{
  "_format": "hh-sol-artifact-1",
  "contractName": "proxy",
  "sourceName": "contracts/Proxy.sol",
  "abi": [
    {
      "inputs": [
        {
          "internalType": "address",
          "name": "_implementation",
          "type": "address"
        }
      ],
      "stateMutability": "nonpayable",
      "type": "constructor"
    },
    {
      "stateMutability": "payable",
      "type": "fallback"
    },
    {
      "inputs": [],
      "name": "implementation",
      "outputs": [
        {
          "internalType": "address",
          "name": "",
          "type": "address"
        }
      ],
      "stateMutability": "view",
      "type": "function"
    },
    {
      "inputs": [],
      "name": "owner",
      "outputs": [
        {
          "internalType": "address",
          "name": "",
          "type": "address"
        }
      ],
      "stateMutability": "view",
      "type": "function"
    },
    {
      "inputs": [
        {
          "internalType": "address",
          "name": "newImplementation",
          "type": "address"
        }
      ],
      "name": "upgrade",
      "outputs": [],
      "stateMutability": "nonpayable",
      "type": "function"
    },
    {
      "inputs": [],
      "name": "value",
      "outputs": [
        {
          "internalType": "uint256",
          "name": "",
          "type": "uint256"
        }
      ],
      "stateMutability": "view",
      "type": "function"
    },
    {
      "stateMutability": "payable",
      "type": "receive"
    }
  ],
  "bytecode": "0x608060405234801561001057600080fd5b506040516106aa3803806106aa8339818101604052810190610032919061011d565b80600160006101000a81548173ffffffffffffffffffffffffffffffffffffffff021916908373ffffffffffffffffffffffffffffffffffffffff16021790555033600260006101000a81548173ffffffffffffffffffffffffffffffffffffffff021916908373ffffffffffffffffffffffffffffffffffffffff1602179055505061014a565b600080fd5b600073ffffffffffffffffffffffffffffffffffffffff82169050919050565b60006100ea826100bf565b9050919050565b6100fa816100df565b811461010557600080fd5b50565b600081519050610117816100f1565b92915050565b600060208284031215610133576101326100ba565b5b600061014184828501610108565b91505092915050565b610551806101596000396000f3fe6080604052600436106100435760003560e01c80630900f0101461011c5780633fa4f245146101455780635c60da1b146101705780638da5cb5b1461019b5761004a565b3661004a57005b6000600160009054906101000a900473ffffffffffffffffffffffffffffffffffffffff1673ffffffffffffffffffffffffffffffffffffffff1660003660405161009692919061032b565b600060405180830381855af49150503d80600081146100d1576040519150601f19603f3d011682016040523d82523d6000602084013e6100d6565b606091505b505090508061011a576040517f08c379a0000000000000000000000000000000000000000000000000000000008152600401610111906103a1565b60405180910390fd5b005b34801561012857600080fd5b50610143600480360381019061013e9190610424565b6101c6565b005b34801561015157600080fd5b5061015a61029a565b604051610167919061046a565b60405180910390f35b34801561017c57600080fd5b506101856102a0565b6040516101929190610494565b60405180910390f35b3480156101a757600080fd5b506101b06102c6565b6040516101bd9190610494565b60405180910390f35b600260009054906101000a900473ffffffffffffffffffffffffffffffffffffffff1673ffffffffffffffffffffffffffffffffffffffff163373ffffffffffffffffffffffffffffffffffffffff1614610256576040517f08c379a000000000000000000000000000000000000000000000000000000000815260040161024d906104fb565b60405180910390fd5b80600160006101000a81548173ffffffffffffffffffffffffffffffffffffffff021916908373ffffffffffffffffffffffffffffffffffffffff16021790555050565b60005481565b600160009054906101000a900473ffffffffffffffffffffffffffffffffffffffff1681565b600260009054906101000a900473ffffffffffffffffffffffffffffffffffffffff1681565b600081905092915050565b82818337600083830152505050565b600061031283856102ec565b935061031f8385846102f7565b82840190509392505050565b6000610338828486610306565b91508190509392505050565b600082825260208201905092915050565b7f44656c65676174652043616c6c204661696c6564000000000000000000000000600082015250565b600061038b601483610344565b915061039682610355565b602082019050919050565b600060208201905081810360008301526103ba8161037e565b9050919050565b600080fd5b600073ffffffffffffffffffffffffffffffffffffffff82169050919050565b60006103f1826103c6565b9050919050565b610401816103e6565b811461040c57600080fd5b50565b60008135905061041e816103f8565b92915050565b60006020828403121561043a576104396103c1565b5b60006104488482850161040f565b91505092915050565b6000819050919050565b61046481610451565b82525050565b600060208201905061047f600083018461045b565b92915050565b61048e816103e6565b82525050565b60006020820190506104a96000830184610485565b92915050565b7f596f7520617265206e6f7420417574686f72697a656400000000000000000000600082015250565b60006104e5601683610344565b91506104f0826104af565b602082019050919050565b60006020820190508181036000830152610514816104d8565b905091905056fea2646970667358221220533ab7457911e9e50b1f74c08b65f8b7e902c5a4c060ec3d38c09d46c02f7e5f64736f6c634300081c0033",
  "linkReferences": {},
  "deployedLinkReferences": {}
}