{
  "_format": "hh-sol-artifact-1",
  "contractName": "Staking",
  "sourceName": "contracts/Staking.sol",
  "abi": [
    {
      "inputs": [
        {
          "internalType": "address",
          "name": "_tokenAddress",
          "type": "address"
        }
      ],
      "stateMutability": "nonpayable",
      "type": "constructor"
    },
    {
      "inputs": [],
      "name": "EmptyTransaction",
      "type": "error"
    },
    {
      "inputs": [],
      "name": "InvalidAmount",
      "type": "error"
    },
    {
      "inputs": [
        {
          "internalType": "address",
          "name": "caller",
          "type": "address"
        }
      ],
      "name": "NotOwner",
      "type": "error"
    },
    {
      "inputs": [],
      "name": "StakeEmpty",
      "type": "error"
    },
    {
      "inputs": [],
      "name": "TransactionFailed",
      "type": "error"
    },
    {
      "inputs": [],
      "name": "claimRewards",
      "outputs": [],
      "stateMutability": "nonpayable",
      "type": "function"
    },
    {
      "inputs": [],
      "name": "deposit",
      "outputs": [],
      "stateMutability": "payable",
      "type": "function"
    },
    {
      "inputs": [],
      "name": "owner",
      "outputs": [
        {
          "internalType": "address",
          "name": "",
          "type": "address"
        }
      ],
      "stateMutability": "view",
      "type": "function"
    },
    {
      "inputs": [
        {
          "internalType": "uint256",
          "name": "amount",
          "type": "uint256"
        }
      ],
      "name": "stake",
      "outputs": [],
      "stateMutability": "nonpayable",
      "type": "function"
    },
    {
      "inputs": [],
      "name": "stakingToken",
      "outputs": [
        {
          "internalType": "contract IERC20",
          "name": "",
          "type": "address"
        }
      ],
      "stateMutability": "view",
      "type": "function"
    },
    {
      "inputs": [
        {
          "internalType": "uint256",
          "name": "amount",
          "type": "uint256"
        }
      ],
      "name": "unstake",
      "outputs": [],
      "stateMutability": "nonpayable",
      "type": "function"
    }
  ],
  "bytecode": "0x60c060405234801561001057600080fd5b50604051610ff8380380610ff883398181016040528101906100329190610103565b3373ffffffffffffffffffffffffffffffffffffffff1660808173ffffffffffffffffffffffffffffffffffffffff16815250508073ffffffffffffffffffffffffffffffffffffffff1660a08173ffffffffffffffffffffffffffffffffffffffff168152505050610130565b600080fd5b600073ffffffffffffffffffffffffffffffffffffffff82169050919050565b60006100d0826100a5565b9050919050565b6100e0816100c5565b81146100eb57600080fd5b50565b6000815190506100fd816100d7565b92915050565b600060208284031215610119576101186100a0565b5b6000610127848285016100ee565b91505092915050565b60805160a051610e8e61016a60003960008181610384015281816106b501526109660152600081816106d901526109fa0152610e8e6000f3fe6080604052600436106100555760003560e01c80632e17de781461005a578063372500ab1461008357806372f702f31461009a5780638da5cb5b146100c5578063a694fc3a146100f0578063d0e30db014610119575b600080fd5b34801561006657600080fd5b50610081600480360381019061007c9190610b67565b610123565b005b34801561008f57600080fd5b50610098610413565b005b3480156100a657600080fd5b506100af6106b3565b6040516100bc9190610c13565b60405180910390f35b3480156100d157600080fd5b506100da6106d7565b6040516100e79190610c4f565b60405180910390f35b3480156100fc57600080fd5b5061011760048036038101906101129190610b67565b6106fb565b005b6101216109f8565b005b6000600260003373ffffffffffffffffffffffffffffffffffffffff1673ffffffffffffffffffffffffffffffffffffffff168152602001908152602001600020600001541161019f576040517f7e85e0b100000000000000000000000000000000000000000000000000000000815260040160405180910390fd5b6000600260003373ffffffffffffffffffffffffffffffffffffffff1673ffffffffffffffffffffffffffffffffffffffff168152602001908152602001600020600001549050610275600260003373ffffffffffffffffffffffffffffffffffffffff1673ffffffffffffffffffffffffffffffffffffffff16815260200190815260200160002060020154600260003373ffffffffffffffffffffffffffffffffffffffff1673ffffffffffffffffffffffffffffffffffffffff1681526020019081526020016000206001015483610adf565b600260003373ffffffffffffffffffffffffffffffffffffffff1673ffffffffffffffffffffffffffffffffffffffff168152602001908152602001600020600201819055508181146102c857426102cb565b60005b600260003373ffffffffffffffffffffffffffffffffffffffff1673ffffffffffffffffffffffffffffffffffffffff1681526020019081526020016000206001018190555081600260003373ffffffffffffffffffffffffffffffffffffffff1673ffffffffffffffffffffffffffffffffffffffff16815260200190815260200160002060000160008282546103639190610c99565b925050819055508160008082825461037b9190610c99565b925050819055507f000000000000000000000000000000000000000000000000000000000000000073ffffffffffffffffffffffffffffffffffffffff1663a9059cbb33846040518363ffffffff1660e01b81526004016103dd929190610cdc565b600060405180830381600087803b1580156103f757600080fd5b505af115801561040b573d6000803e3d6000fd5b505050505050565b6000600260003373ffffffffffffffffffffffffffffffffffffffff1673ffffffffffffffffffffffffffffffffffffffff168152602001908152602001600020600001541161048f576040517f7e85e0b100000000000000000000000000000000000000000000000000000000815260040160405180910390fd5b6000610562600260003373ffffffffffffffffffffffffffffffffffffffff1673ffffffffffffffffffffffffffffffffffffffff16815260200190815260200160002060020154600260003373ffffffffffffffffffffffffffffffffffffffff1673ffffffffffffffffffffffffffffffffffffffff16815260200190815260200160002060010154600260003373ffffffffffffffffffffffffffffffffffffffff1673ffffffffffffffffffffffffffffffffffffffff16815260200190815260200160002060000154610adf565b90506000600260003373ffffffffffffffffffffffffffffffffffffffff1673ffffffffffffffffffffffffffffffffffffffff1681526020019081526020016000206002018190555042600260003373ffffffffffffffffffffffffffffffffffffffff1673ffffffffffffffffffffffffffffffffffffffff1681526020019081526020016000206001018190555080600160008282546106059190610c99565b9250508190555060003373ffffffffffffffffffffffffffffffffffffffff168260405161063290610d36565b60006040518083038185875af1925050503d806000811461066f576040519150601f19603f3d011682016040523d82523d6000602084013e610674565b606091505b50509050806106af576040517fbf961a2800000000000000000000000000000000000000000000000000000000815260040160405180910390fd5b5050565b7f000000000000000000000000000000000000000000000000000000000000000081565b7f000000000000000000000000000000000000000000000000000000000000000081565b60008111610735576040517f2c5211c600000000000000000000000000000000000000000000000000000000815260040160405180910390fd5b6000600260003373ffffffffffffffffffffffffffffffffffffffff1673ffffffffffffffffffffffffffffffffffffffff168152602001908152602001600020600001549050600042905060008211156108ab57610819600260003373ffffffffffffffffffffffffffffffffffffffff1673ffffffffffffffffffffffffffffffffffffffff16815260200190815260200160002060020154600260003373ffffffffffffffffffffffffffffffffffffffff1673ffffffffffffffffffffffffffffffffffffffff1681526020019081526020016000206001015484610adf565b600260003373ffffffffffffffffffffffffffffffffffffffff1673ffffffffffffffffffffffffffffffffffffffff1681526020019081526020016000206002018190555080600260003373ffffffffffffffffffffffffffffffffffffffff1673ffffffffffffffffffffffffffffffffffffffff168152602001908152602001600020600101819055506108f3565b80600260003373ffffffffffffffffffffffffffffffffffffffff1673ffffffffffffffffffffffffffffffffffffffff168152602001908152602001600020600101819055505b826000808282546109049190610d4b565b9250508190555082600260003373ffffffffffffffffffffffffffffffffffffffff1673ffffffffffffffffffffffffffffffffffffffff168152602001908152602001600020600001600082825461095d9190610d4b565b925050819055507f000000000000000000000000000000000000000000000000000000000000000073ffffffffffffffffffffffffffffffffffffffff166323b872dd3330866040518463ffffffff1660e01b81526004016109c193929190610d7f565b600060405180830381600087803b1580156109db57600080fd5b505af11580156109ef573d6000803e3d6000fd5b50505050505050565b7f000000000000000000000000000000000000000000000000000000000000000073ffffffffffffffffffffffffffffffffffffffff163373ffffffffffffffffffffffffffffffffffffffff16143390610a89576040517f245aecd3000000000000000000000000000000000000000000000000000000008152600401610a809190610c4f565b60405180910390fd5b5060003411610ac4576040517f260c9d6200000000000000000000000000000000000000000000000000000000815260040160405180910390fd5b3460016000828254610ad69190610d4b565b92505081905550565b60006103e8670de0b6b3a7640000838542610afa9190610c99565b610b049190610db6565b610b0e9190610e27565b610b189190610e27565b84610b239190610d4b565b90509392505050565b600080fd5b6000819050919050565b610b4481610b31565b8114610b4f57600080fd5b50565b600081359050610b6181610b3b565b92915050565b600060208284031215610b7d57610b7c610b2c565b5b6000610b8b84828501610b52565b91505092915050565b600073ffffffffffffffffffffffffffffffffffffffff82169050919050565b6000819050919050565b6000610bd9610bd4610bcf84610b94565b610bb4565b610b94565b9050919050565b6000610beb82610bbe565b9050919050565b6000610bfd82610be0565b9050919050565b610c0d81610bf2565b82525050565b6000602082019050610c286000830184610c04565b92915050565b6000610c3982610b94565b9050919050565b610c4981610c2e565b82525050565b6000602082019050610c646000830184610c40565b92915050565b7f4e487b7100000000000000000000000000000000000000000000000000000000600052601160045260246000fd5b6000610ca482610b31565b9150610caf83610b31565b9250828203905081811115610cc757610cc6610c6a565b5b92915050565b610cd681610b31565b82525050565b6000604082019050610cf16000830185610c40565b610cfe6020830184610ccd565b9392505050565b600081905092915050565b50565b6000610d20600083610d05565b9150610d2b82610d10565b600082019050919050565b6000610d4182610d13565b9150819050919050565b6000610d5682610b31565b9150610d6183610b31565b9250828201905080821115610d7957610d78610c6a565b5b92915050565b6000606082019050610d946000830186610c40565b610da16020830185610c40565b610dae6040830184610ccd565b949350505050565b6000610dc182610b31565b9150610dcc83610b31565b9250828202610dda81610b31565b91508282048414831517610df157610df0610c6a565b5b5092915050565b7f4e487b7100000000000000000000000000000000000000000000000000000000600052601260045260246000fd5b6000610e3282610b31565b9150610e3d83610b31565b925082610e4d57610e4c610df8565b5b82820490509291505056fea2646970667358221220234468e79fc1785a81c10cdf316ee013d5b46e00fb4f2c47c6316d1961d56d2864736f6c634300081c0033",
  "linkReferences": {},
  "deployedLinkReferences": {}
}