{
  "_format": "hh-sol-artifact-1",
  "contractName": "WorldGotTalent",
  "sourceName": "contracts/TalentShowVoting.sol",
  "abi": [
    {
      "inputs": [],
      "stateMutability": "nonpayable",
      "type": "constructor"
    },
    {
      "inputs": [],
      "name": "AlreadyVoted",
      "type": "error"
    },
    {
      "inputs": [],
      "name": "FinalistCannotBeJudge",
      "type": "error"
    },
    {
      "inputs": [],
      "name": "InvalidAddress",
      "type": "error"
    },
    {
      "inputs": [],
      "name": "InvalidFinalist",
      "type": "error"
    },
    {
      "inputs": [],
      "name": "NoJudgesOrFinalists",
      "type": "error"
    },
    {
      "inputs": [
        {
          "internalType": "address",
          "name": "caller",
          "type": "address"
        }
      ],
      "name": "NotOwner",
      "type": "error"
    },
    {
      "inputs": [],
      "name": "VotingAlreadyEnded",
      "type": "error"
    },
    {
      "inputs": [],
      "name": "VotingAlreadyStarted",
      "type": "error"
    },
    {
      "inputs": [],
      "name": "VotingNotEnded",
      "type": "error"
    },
    {
      "inputs": [],
      "name": "VotingNotStarted",
      "type": "error"
    },
    {
      "inputs": [],
      "name": "WeightageNotSet",
      "type": "error"
    },
    {
      "anonymous": false,
      "inputs": [
        {
          "indexed": false,
          "internalType": "address[]",
          "name": "finalists",
          "type": "address[]"
        }
      ],
      "name": "FinalistsSelected",
      "type": "event"
    },
    {
      "anonymous": false,
      "inputs": [
        {
          "indexed": false,
          "internalType": "address[]",
          "name": "judges",
          "type": "address[]"
        }
      ],
      "name": "JudgesSelected",
      "type": "event"
    },
    {
      "anonymous": false,
      "inputs": [
        {
          "indexed": true,
          "internalType": "address",
          "name": "voter",
          "type": "address"
        },
        {
          "indexed": true,
          "internalType": "address",
          "name": "finalist",
          "type": "address"
        },
        {
          "indexed": false,
          "internalType": "uint256",
          "name": "weight",
          "type": "uint256"
        }
      ],
      "name": "VoteCast",
      "type": "event"
    },
    {
      "anonymous": false,
      "inputs": [
        {
          "indexed": false,
          "internalType": "address[]",
          "name": "winners",
          "type": "address[]"
        }
      ],
      "name": "VotingEnded",
      "type": "event"
    },
    {
      "anonymous": false,
      "inputs": [],
      "name": "VotingStarted",
      "type": "event"
    },
    {
      "anonymous": false,
      "inputs": [
        {
          "indexed": false,
          "internalType": "uint256",
          "name": "judgeWeight",
          "type": "uint256"
        },
        {
          "indexed": false,
          "internalType": "uint256",
          "name": "audienceWeight",
          "type": "uint256"
        }
      ],
      "name": "WeightageSet",
      "type": "event"
    },
    {
      "inputs": [],
      "name": "audienceVote",
      "outputs": [
        {
          "internalType": "uint256",
          "name": "",
          "type": "uint256"
        }
      ],
      "stateMutability": "view",
      "type": "function"
    },
    {
      "inputs": [
        {
          "internalType": "address",
          "name": "finalistAddress",
          "type": "address"
        }
      ],
      "name": "castVote",
      "outputs": [],
      "stateMutability": "nonpayable",
      "type": "function"
    },
    {
      "inputs": [],
      "name": "endVoting",
      "outputs": [],
      "stateMutability": "nonpayable",
      "type": "function"
    },
    {
      "inputs": [],
      "name": "ended",
      "outputs": [
        {
          "internalType": "bool",
          "name": "",
          "type": "bool"
        }
      ],
      "stateMutability": "view",
      "type": "function"
    },
    {
      "inputs": [
        {
          "internalType": "uint256",
          "name": "",
          "type": "uint256"
        }
      ],
      "name": "finalists",
      "outputs": [
        {
          "internalType": "address",
          "name": "",
          "type": "address"
        }
      ],
      "stateMutability": "view",
      "type": "function"
    },
    {
      "inputs": [
        {
          "internalType": "address",
          "name": "",
          "type": "address"
        }
      ],
      "name": "finalistsPoints",
      "outputs": [
        {
          "internalType": "uint256",
          "name": "",
          "type": "uint256"
        }
      ],
      "stateMutability": "view",
      "type": "function"
    },
    {
      "inputs": [
        {
          "internalType": "address",
          "name": "",
          "type": "address"
        }
      ],
      "name": "hasVoted",
      "outputs": [
        {
          "internalType": "bool",
          "name": "",
          "type": "bool"
        }
      ],
      "stateMutability": "view",
      "type": "function"
    },
    {
      "inputs": [
        {
          "internalType": "uint256",
          "name": "judgeWeightage",
          "type": "uint256"
        },
        {
          "internalType": "uint256",
          "name": "audienceWeightage",
          "type": "uint256"
        }
      ],
      "name": "inputWeightage",
      "outputs": [],
      "stateMutability": "nonpayable",
      "type": "function"
    },
    {
      "inputs": [
        {
          "internalType": "address",
          "name": "",
          "type": "address"
        }
      ],
      "name": "isFinalist",
      "outputs": [
        {
          "internalType": "bool",
          "name": "",
          "type": "bool"
        }
      ],
      "stateMutability": "view",
      "type": "function"
    },
    {
      "inputs": [
        {
          "internalType": "address",
          "name": "",
          "type": "address"
        }
      ],
      "name": "isJudge",
      "outputs": [
        {
          "internalType": "bool",
          "name": "",
          "type": "bool"
        }
      ],
      "stateMutability": "view",
      "type": "function"
    },
    {
      "inputs": [],
      "name": "judgeVote",
      "outputs": [
        {
          "internalType": "uint256",
          "name": "",
          "type": "uint256"
        }
      ],
      "stateMutability": "view",
      "type": "function"
    },
    {
      "inputs": [
        {
          "internalType": "uint256",
          "name": "",
          "type": "uint256"
        }
      ],
      "name": "judges",
      "outputs": [
        {
          "internalType": "address",
          "name": "",
          "type": "address"
        }
      ],
      "stateMutability": "view",
      "type": "function"
    },
    {
      "inputs": [],
      "name": "owner",
      "outputs": [
        {
          "internalType": "address",
          "name": "",
          "type": "address"
        }
      ],
      "stateMutability": "view",
      "type": "function"
    },
    {
      "inputs": [
        {
          "internalType": "address[]",
          "name": "arrayOfAddresses",
          "type": "address[]"
        }
      ],
      "name": "selectFinalists",
      "outputs": [],
      "stateMutability": "nonpayable",
      "type": "function"
    },
    {
      "inputs": [
        {
          "internalType": "address[]",
          "name": "arrayOfAddresses",
          "type": "address[]"
        }
      ],
      "name": "selectJudges",
      "outputs": [],
      "stateMutability": "nonpayable",
      "type": "function"
    },
    {
      "inputs": [],
      "name": "showResult",
      "outputs": [
        {
          "internalType": "address[]",
          "name": "",
          "type": "address[]"
        }
      ],
      "stateMutability": "view",
      "type": "function"
    },
    {
      "inputs": [],
      "name": "startVoting",
      "outputs": [],
      "stateMutability": "nonpayable",
      "type": "function"
    },
    {
      "inputs": [],
      "name": "votingStarted",
      "outputs": [
        {
          "internalType": "bool",
          "name": "",
          "type": "bool"
        }
      ],
      "stateMutability": "view",
      "type": "function"
    },
    {
      "inputs": [
        {
          "internalType": "uint256",
          "name": "",
          "type": "uint256"
        }
      ],
      "name": "winners",
      "outputs": [
        {
          "internalType": "address",
          "name": "",
          "type": "address"
        }
      ],
      "stateMutability": "view",
      "type": "function"
    }
  ],
  "bytecode": "0x60a060405234801561001057600080fd5b503373ffffffffffffffffffffffffffffffffffffffff1660808173ffffffffffffffffffffffffffffffffffffffff1681525050608051611f89610083600039600081816103e3015281816106d501528181610e7901528181610f210152818161130b01526117510152611f896000f3fe608060405234801561001057600080fd5b50600436106101215760003560e01c806371bee416116100ad578063b06b036811610071578063b06b03681461030c578063c3403ddf1461033c578063e8d68c4214610346578063ed896d6614610362578063ee038b141461039257610121565b806371bee4161461025257806383d948b7146102825780638da5cb5b146102a05780639fdd0917146102be578063a2fb1175146102dc57610121565b806333ee3131116100f457806333ee31311461019c5780633bda5acb146101ba5780633f60cd93146101ea57806353358fc4146102065780635a34c3ab1461022257610121565b806309eef43e1461012657806312fa6feb146101565780631ec6b60a146101745780632be893581461017e575b600080fd5b610140600480360381019061013b91906119ae565b6103ae565b60405161014d91906119f6565b60405180910390f35b61015e6103ce565b60405161016b91906119f6565b60405180910390f35b61017c6103e1565b005b6101866105e1565b6040516101939190611a2a565b60405180910390f35b6101a46105e7565b6040516101b19190611b03565b60405180910390f35b6101d460048036038101906101cf91906119ae565b6106bb565b6040516101e19190611a2a565b60405180910390f35b61020460048036038101906101ff9190611c7e565b6106d3565b005b610220600480360381019061021b91906119ae565b610af9565b005b61023c600480360381019061023791906119ae565b610e05565b60405161024991906119f6565b60405180910390f35b61026c60048036038101906102679190611cf3565b610e25565b6040516102799190611d2f565b60405180910390f35b61028a610e64565b60405161029791906119f6565b60405180910390f35b6102a8610e77565b6040516102b59190611d2f565b60405180910390f35b6102c6610e9b565b6040516102d39190611a2a565b60405180910390f35b6102f660048036038101906102f19190611cf3565b610ea1565b6040516103039190611d2f565b60405180910390f35b61032660048036038101906103219190611cf3565b610ee0565b6040516103339190611d2f565b60405180910390f35b610344610f1f565b005b610360600480360381019061035b9190611c7e565b611309565b005b61037c600480360381019061037791906119ae565b61172f565b60405161038991906119f6565b60405180910390f35b6103ac60048036038101906103a79190611d4a565b61174f565b005b60066020528060005260406000206000915054906101000a900460ff1681565b600260019054906101000a900460ff1681565b7f000000000000000000000000000000000000000000000000000000000000000073ffffffffffffffffffffffffffffffffffffffff163373ffffffffffffffffffffffffffffffffffffffff161461047157336040517f245aecd30000000000000000000000000000000000000000000000000000000081526004016104689190611d2f565b60405180910390fd5b600260009054906101000a900460ff16156104b8576040517f3b51a3e000000000000000000000000000000000000000000000000000000000815260040160405180910390fd5b600260019054906101000a900460ff16156104ff576040517f181ff59a00000000000000000000000000000000000000000000000000000000815260040160405180910390fd5b6000600880549050148061051857506000600780549050145b1561054f576040517f4fe14a2000000000000000000000000000000000000000000000000000000000815260040160405180910390fd5b60008054148061056157506000600154145b15610598576040517f38b7721a00000000000000000000000000000000000000000000000000000000815260040160405180910390fd5b6001600260006101000a81548160ff0219169083151502179055507f877e2548498f42b7975a186b94ef1d32c86d420b7b806dd2be2bea293b89590460405160405180910390a1565b60015481565b6060600260019054906101000a900460ff1661062f576040517f7f8617a200000000000000000000000000000000000000000000000000000000815260040160405180910390fd5b60098054806020026020016040519081016040528092919081815260200182805480156106b157602002820191906000526020600020905b8160009054906101000a900473ffffffffffffffffffffffffffffffffffffffff1673ffffffffffffffffffffffffffffffffffffffff1681526020019060010190808311610667575b5050505050905090565b60036020528060005260406000206000915090505481565b7f000000000000000000000000000000000000000000000000000000000000000073ffffffffffffffffffffffffffffffffffffffff163373ffffffffffffffffffffffffffffffffffffffff161461076357336040517f245aecd300000000000000000000000000000000000000000000000000000000815260040161075a9190611d2f565b60405180910390fd5b600260009054906101000a900460ff16156107aa576040517f3b51a3e000000000000000000000000000000000000000000000000000000000815260040160405180910390fd5b600260019054906101000a900460ff16156107f1576040517f181ff59a00000000000000000000000000000000000000000000000000000000815260040160405180910390fd5b600081510361082c576040517fe6c4247b00000000000000000000000000000000000000000000000000000000815260040160405180910390fd5b60005b8151811015610abe57600073ffffffffffffffffffffffffffffffffffffffff1682828151811061086357610862611d8a565b5b602002602001015173ffffffffffffffffffffffffffffffffffffffff16036108b8576040517fe6c4247b00000000000000000000000000000000000000000000000000000000815260040160405180910390fd5b600460008383815181106108cf576108ce611d8a565b5b602002602001015173ffffffffffffffffffffffffffffffffffffffff1673ffffffffffffffffffffffffffffffffffffffff16815260200190815260200160002060009054906101000a900460ff1615610956576040517fa1de5c6b00000000000000000000000000000000000000000000000000000000815260040160405180910390fd5b6005600083838151811061096d5761096c611d8a565b5b602002602001015173ffffffffffffffffffffffffffffffffffffffff1673ffffffffffffffffffffffffffffffffffffffff16815260200190815260200160002060009054906101000a900460ff16610ab1576001600560008484815181106109da576109d9611d8a565b5b602002602001015173ffffffffffffffffffffffffffffffffffffffff1673ffffffffffffffffffffffffffffffffffffffff16815260200190815260200160002060006101000a81548160ff0219169083151502179055506007828281518110610a4857610a47611d8a565b5b60200260200101519080600181540180825580915050600190039060005260206000200160009091909190916101000a81548173ffffffffffffffffffffffffffffffffffffffff021916908373ffffffffffffffffffffffffffffffffffffffff1602179055505b808060010191505061082f565b507f4c680944d3ab0db980240f2955ba3101ed3e33bd66e824fc2bf761677c1deac981604051610aee9190611b03565b60405180910390a150565b600260009054906101000a900460ff16610b3f576040517f7fa0120200000000000000000000000000000000000000000000000000000000815260040160405180910390fd5b600260019054906101000a900460ff1615610b86576040517f181ff59a00000000000000000000000000000000000000000000000000000000815260040160405180910390fd5b600660003373ffffffffffffffffffffffffffffffffffffffff1673ffffffffffffffffffffffffffffffffffffffff16815260200190815260200160002060009054906101000a900460ff1615610c0a576040517f7c9a1cf900000000000000000000000000000000000000000000000000000000815260040160405180910390fd5b600560008273ffffffffffffffffffffffffffffffffffffffff1673ffffffffffffffffffffffffffffffffffffffff16815260200190815260200160002060009054906101000a900460ff16610c8d576040517f98ce488b00000000000000000000000000000000000000000000000000000000815260040160405180910390fd5b6000600460003373ffffffffffffffffffffffffffffffffffffffff1673ffffffffffffffffffffffffffffffffffffffff16815260200190815260200160002060009054906101000a900460ff16610ce857600154610cec565b6000545b905080600360008473ffffffffffffffffffffffffffffffffffffffff1673ffffffffffffffffffffffffffffffffffffffff1681526020019081526020016000206000828254610d3d9190611de8565b925050819055506001600660003373ffffffffffffffffffffffffffffffffffffffff1673ffffffffffffffffffffffffffffffffffffffff16815260200190815260200160002060006101000a81548160ff0219169083151502179055508173ffffffffffffffffffffffffffffffffffffffff163373ffffffffffffffffffffffffffffffffffffffff167f484413c33463e7d976e3ded2a85b0c31610d0906977df2cd9cbd6d12a6872a8483604051610df99190611a2a565b60405180910390a35050565b60056020528060005260406000206000915054906101000a900460ff1681565b60078181548110610e3557600080fd5b906000526020600020016000915054906101000a900473ffffffffffffffffffffffffffffffffffffffff1681565b600260009054906101000a900460ff1681565b7f000000000000000000000000000000000000000000000000000000000000000081565b60005481565b60098181548110610eb157600080fd5b906000526020600020016000915054906101000a900473ffffffffffffffffffffffffffffffffffffffff1681565b60088181548110610ef057600080fd5b906000526020600020016000915054906101000a900473ffffffffffffffffffffffffffffffffffffffff1681565b7f000000000000000000000000000000000000000000000000000000000000000073ffffffffffffffffffffffffffffffffffffffff163373ffffffffffffffffffffffffffffffffffffffff1614610faf57336040517f245aecd3000000000000000000000000000000000000000000000000000000008152600401610fa69190611d2f565b60405180910390fd5b600260009054906101000a900460ff16610ff5576040517f7fa0120200000000000000000000000000000000000000000000000000000000815260040160405180910390fd5b600260019054906101000a900460ff161561103c576040517f181ff59a00000000000000000000000000000000000000000000000000000000815260040160405180910390fd5b6001600260016101000a81548160ff0219169083151502179055506000805b60078054905081101561117b5781600360006007848154811061108157611080611d8a565b5b9060005260206000200160009054906101000a900473ffffffffffffffffffffffffffffffffffffffff1673ffffffffffffffffffffffffffffffffffffffff1673ffffffffffffffffffffffffffffffffffffffff16815260200190815260200160002054111561116e57600360006007838154811061110557611104611d8a565b5b9060005260206000200160009054906101000a900473ffffffffffffffffffffffffffffffffffffffff1673ffffffffffffffffffffffffffffffffffffffff1673ffffffffffffffffffffffffffffffffffffffff1681526020019081526020016000205491505b808060010191505061105b565b506009600061118a91906118fe565b60005b6007805490508110156112cd578160036000600784815481106111b3576111b2611d8a565b5b9060005260206000200160009054906101000a900473ffffffffffffffffffffffffffffffffffffffff1673ffffffffffffffffffffffffffffffffffffffff1673ffffffffffffffffffffffffffffffffffffffff16815260200190815260200160002054036112c05760096007828154811061123457611233611d8a565b5b9060005260206000200160009054906101000a900473ffffffffffffffffffffffffffffffffffffffff169080600181540180825580915050600190039060005260206000200160009091909190916101000a81548173ffffffffffffffffffffffffffffffffffffffff021916908373ffffffffffffffffffffffffffffffffffffffff1602179055505b808060010191505061118d565b507f45b224a7798251912f7a24703999cf23ee0fa436f202b4d00c2f1ffa00da7ad660096040516112fe9190611f08565b60405180910390a150565b7f000000000000000000000000000000000000000000000000000000000000000073ffffffffffffffffffffffffffffffffffffffff163373ffffffffffffffffffffffffffffffffffffffff161461139957336040517f245aecd30000000000000000000000000000000000000000000000000000000081526004016113909190611d2f565b60405180910390fd5b600260009054906101000a900460ff16156113e0576040517f3b51a3e000000000000000000000000000000000000000000000000000000000815260040160405180910390fd5b600260019054906101000a900460ff1615611427576040517f181ff59a00000000000000000000000000000000000000000000000000000000815260040160405180910390fd5b6000815103611462576040517fe6c4247b00000000000000000000000000000000000000000000000000000000815260040160405180910390fd5b60005b81518110156116f457600073ffffffffffffffffffffffffffffffffffffffff1682828151811061149957611498611d8a565b5b602002602001015173ffffffffffffffffffffffffffffffffffffffff16036114ee576040517fe6c4247b00000000000000000000000000000000000000000000000000000000815260040160405180910390fd5b6005600083838151811061150557611504611d8a565b5b602002602001015173ffffffffffffffffffffffffffffffffffffffff1673ffffffffffffffffffffffffffffffffffffffff16815260200190815260200160002060009054906101000a900460ff161561158c576040517fa1de5c6b00000000000000000000000000000000000000000000000000000000815260040160405180910390fd5b600460008383815181106115a3576115a2611d8a565b5b602002602001015173ffffffffffffffffffffffffffffffffffffffff1673ffffffffffffffffffffffffffffffffffffffff16815260200190815260200160002060009054906101000a900460ff166116e7576001600460008484815181106116105761160f611d8a565b5b602002602001015173ffffffffffffffffffffffffffffffffffffffff1673ffffffffffffffffffffffffffffffffffffffff16815260200190815260200160002060006101000a81548160ff021916908315150217905550600882828151811061167e5761167d611d8a565b5b60200260200101519080600181540180825580915050600190039060005260206000200160009091909190916101000a81548173ffffffffffffffffffffffffffffffffffffffff021916908373ffffffffffffffffffffffffffffffffffffffff1602179055505b8080600101915050611465565b507f7ff0dd15bb6f14899675693281c62296b2e68b635fe6f0e146c62c451ebc6859816040516117249190611b03565b60405180910390a150565b60046020528060005260406000206000915054906101000a900460ff1681565b7f000000000000000000000000000000000000000000000000000000000000000073ffffffffffffffffffffffffffffffffffffffff163373ffffffffffffffffffffffffffffffffffffffff16146117df57336040517f245aecd30000000000000000000000000000000000000000000000000000000081526004016117d69190611d2f565b60405180910390fd5b600260009054906101000a900460ff1615611826576040517f3b51a3e000000000000000000000000000000000000000000000000000000000815260040160405180910390fd5b600260019054906101000a900460ff161561186d576040517f181ff59a00000000000000000000000000000000000000000000000000000000815260040160405180910390fd5b600082148061187c5750600081145b156118b3576040517fe6c4247b00000000000000000000000000000000000000000000000000000000815260040160405180910390fd5b81600081905550806001819055507fb49f358b748ffffac3a3679c2d818222b6580d3a94beaa702d1cda8fbcdf319682826040516118f2929190611f2a565b60405180910390a15050565b508054600082559060005260206000209081019061191c919061191f565b50565b5b80821115611938576000816000905550600101611920565b5090565b6000604051905090565b600080fd5b600080fd5b600073ffffffffffffffffffffffffffffffffffffffff82169050919050565b600061197b82611950565b9050919050565b61198b81611970565b811461199657600080fd5b50565b6000813590506119a881611982565b92915050565b6000602082840312156119c4576119c3611946565b5b60006119d284828501611999565b91505092915050565b60008115159050919050565b6119f0816119db565b82525050565b6000602082019050611a0b60008301846119e7565b92915050565b6000819050919050565b611a2481611a11565b82525050565b6000602082019050611a3f6000830184611a1b565b92915050565b600081519050919050565b600082825260208201905092915050565b6000819050602082019050919050565b611a7a81611970565b82525050565b6000611a8c8383611a71565b60208301905092915050565b6000602082019050919050565b6000611ab082611a45565b611aba8185611a50565b9350611ac583611a61565b8060005b83811015611af6578151611add8882611a80565b9750611ae883611a98565b925050600181019050611ac9565b5085935050505092915050565b60006020820190508181036000830152611b1d8184611aa5565b905092915050565b600080fd5b6000601f19601f8301169050919050565b7f4e487b7100000000000000000000000000000000000000000000000000000000600052604160045260246000fd5b611b7382611b2a565b810181811067ffffffffffffffff82111715611b9257611b91611b3b565b5b80604052505050565b6000611ba561193c565b9050611bb18282611b6a565b919050565b600067ffffffffffffffff821115611bd157611bd0611b3b565b5b602082029050602081019050919050565b600080fd5b6000611bfa611bf584611bb6565b611b9b565b90508083825260208201905060208402830185811115611c1d57611c1c611be2565b5b835b81811015611c465780611c328882611999565b845260208401935050602081019050611c1f565b5050509392505050565b600082601f830112611c6557611c64611b25565b5b8135611c75848260208601611be7565b91505092915050565b600060208284031215611c9457611c93611946565b5b600082013567ffffffffffffffff811115611cb257611cb161194b565b5b611cbe84828501611c50565b91505092915050565b611cd081611a11565b8114611cdb57600080fd5b50565b600081359050611ced81611cc7565b92915050565b600060208284031215611d0957611d08611946565b5b6000611d1784828501611cde565b91505092915050565b611d2981611970565b82525050565b6000602082019050611d446000830184611d20565b92915050565b60008060408385031215611d6157611d60611946565b5b6000611d6f85828601611cde565b9250506020611d8085828601611cde565b9150509250929050565b7f4e487b7100000000000000000000000000000000000000000000000000000000600052603260045260246000fd5b7f4e487b7100000000000000000000000000000000000000000000000000000000600052601160045260246000fd5b6000611df382611a11565b9150611dfe83611a11565b9250828201905080821115611e1657611e15611db9565b5b92915050565b600081549050919050565b60008190508160005260206000209050919050565b60008160001c9050919050565b600073ffffffffffffffffffffffffffffffffffffffff82169050919050565b6000611e7c611e7783611e3c565b611e49565b9050919050565b6000611e8f8254611e69565b9050919050565b6000600182019050919050565b6000611eae82611e1c565b611eb88185611a50565b9350611ec383611e27565b8060005b83811015611efb57611ed882611e83565b611ee28882611a80565b9750611eed83611e96565b925050600181019050611ec7565b5085935050505092915050565b60006020820190508181036000830152611f228184611ea3565b905092915050565b6000604082019050611f3f6000830185611a1b565b611f4c6020830184611a1b565b939250505056fea26469706673582212201bed9b4dcdadfa7917998067a1f0e36d21f2d0bdfbb88b3b9d3b7dd2222a6f0a64736f6c634300081c0033",
  "linkReferences": {},
  "deployedLinkReferences": {}
}